:400000000040002011000000550200005502000010B500F0C7FE00F0F5F900F023F9000070B572B61C4A1D4B1D491A6002231D4A1D4D13601D4A182011601D4A00241360CB
:4000400010221C4B1A6080221B4B92011A6012232B6000F039FE8022184B52011A60184A184B19491A604022184B0D201C60184B1A6000F05DFD0D2000F086FD154B200049
:400080001C6000F097FE112303222B60124B1A60124B1D321A6070BD99EE000000030240B10D00000003044030001040080304401803044000060440080604400003014052
:4000C00040FF008000000140410E000028000340040101400C02224030003040000E3F40000000000000000000000000000000000000000000000000000000000000000063
:4001000010B5064C2378002B07D1054B002B02D0044800E000BF0123237010BD6001002000000000B0140000084B10B5002B03D00749084800E000BF07480368002B00D1FE
:4001400010BD064B002BFBD09847F9E70000000064010020B0140000B80000200000000010B500F0BDFE002802D14022024B1A6000F09CFBFEE7C046B0000020F0B51700F9
:400180008022C1B005000E0052000021684601F082F900242C552000390001F041F96A46735C1355802301345B009C42F2D1002280241300FF2664006946E85CC95C821894
:4001C00052183240A9180F78EF5401330870A342F2D141B0F0BDF7B58B18002214000193019B994215D0FF23FF2501341C4006193378D2182A4087183D783570FF253B7074
:400200003678F3182B40C65C0B7873400B700131E6E7F7BDF0B515008022C1B004000E005200002168461F0001F035F9002C0DD0002D0BD03A0029006846FFF79FFF684672
:4002400032002100FFF7C7FF002001E00120404241B0F0BD10B501F0E9F803680C2B00D1FEE7FEE7F8B500250F49104B01394A1C14D000221F685C689E68A018B24203D05E
:40028000B858A0500432F8E70200DE68141AA64201D020C2FAE710330139E8E701F0CCF8FFF75EFFFEE7C04601000000FC140000002370B50B480C4C0C4D9A002100032BB2
:4002C00000D8A958013381502C2BF6D1FFF7A8FE074B1A68002A00D11A608022054B92051A6070BD000000205502000000000000B000002008ED00E0004770B506000D0052
:400300001400002802D0002000F05CFC00207519002C05D0013C2B191B78C018C0B2F7E770BDFF23020070B59A43C0B01300541C6A46FF34D51A1E78EE540133A342FAD188
:40034000C3B2D45C8C4205D0000AD15480B2110000F042FB40B070BD013810B50B2830D80902494200F0C2FF06080A0C0E10141216191B20174B13E0174B16E0174B0AE02E
:40038000174B12E0174B0BE0174B09E0174B02E0174B00E0174BC91817E0174B05E0174BC9180878C0B214E0154BC9180A7848788C780002230418430300C8781343000677
:4003C00006E0002000F0FEFB00210B7848780002184310BDC0FF0100C1FF0100C5FF0100C9FF0100D0FF0100D1FF0100D6FF0100D2FF0100D4FF0100D8FF0100DCFF0100A0
:40040000E0FF01000C4B10B51A68102313400B4A00D113601368802B0DD10024022021001460FFF799FFA04205D021000220FFF793FFFFF761FF10BD54000340B0000020A6
:40044000F8B5010004000320FFF786FF210006000420FFF781FF210007000620FFF77CFF0025012828D021000320FFF775FF01363602F7192E0001300002B84209D2037888
:400480005A1ED2B2FD2A00D80126ED18EDB20130F3E721000120FFF75FFF6D42EBB20625834209D1002E07D0044B24026042C0180121FFF736FF00252800F8BDD1FF0100AB
:4004C000F0B5C14CA54400F023FD62B6002700970197962103AC46ADFF2322004900280000F01EFD0028F4D12188062900D890E02A780423012A5AD16E88F21D8A4200D9F4
:4005000089E0962149008A4200D984E0AA199279172A4CD1F3189BB2002B08D0DCAAAB49D21852181278013B801880B2F3E7AB195A7940421B79120280B21A43082382424B
:4005400035D16AE0342B00D0D1E0009B012B60D1032E5ED180220021520091A8802700F09AFF7F00182191ABD819FF3102ABF21EC91800F087FF0423F619FF33B6B29E429C
:4005800000D01BE116228B21FF3202AB9B18490002AA521810781B78000218438C4B0700984200D824E1FF3BFF3B00930933002546A8012143702B0AC370002302AA0632F4
:4005C0000170291D1580857089B2002909D0DCAC7E4E6418A419247801391B199BB289B2F3E7DCA97B4C49195B420C199BB22370794C1B0A0C192370784B0735C918172378
:400600000B70A9B27F3300F0BCFC62E7009B012B45D00423CBE70323C9E76B782C79180031380A282ED96E4A1568002D26D0009A012A25D106AC02AA13725681002147AE91
:400640000C222000059600F026FFA660210004A8A8472623A588FF339D4202D9A368B34207D0A268002A01D1002D04D12368DBB29EE70E239BE70E23150099E7052397E7BD
:40068000052394E700F03CFEC2FF1600CFFF5EFF3900CFFF3E0051005EFF70008900002EB7D13000FFF7CCFE434243412B713300009D7DE7009B012BABD1012EA9D1002CE8
:4006C000A7D1484B1B681B685A0CD2B2002A02D1DB03DB0D01E080239B002B711B0A6B71FF23AB71FE3BEB710023042560E7009B012B8ED1022E8CD934E7009B012B88D124
:400700000027E6E6009B012B83D12C33F519FF339D4200DD7FE791ABD819320047A900F0B1FE0023AFB21D0042E7731E1F2B0DD800232C48B34207DAEA18011D14795A5CA2
:4007400062405A540133F5E7254B1E7106AB1900254A002711CA11C147AA03CB03C20123082500933B0023E7009B012B00D050E7032E00D04DE716228B21FF3202AB9B18E8
:40078000490002AA521816781B7836021E43104B9E4265D9F63BFF3B09E70020FFF750FE002802D18022114B1A6000250C4B1D7100F0B2FB00F008FA0423F9E6012300278B
:4007C000009302333D00F3E68CFCFFFFA7FDFFFFFF010000ACFDFFFFADFDFFFFAEFDFFFF7C010020BC000020B4140000B00000202B4D2B6819680B0AC9B29BB2002901D087
:4008000001339BB26402381984B29C421ED3019B002B0BD180221900520006A800F03BFE06A9204800F0D8F8012301931E4B1B79002B05D080212A1D490091A8FFF7EAFC22
:4008400091A9200000F0C8F8002804D00123002700930933B6E70123070000930300B1E7802261028919090252000020FFF745FD0500002C0ED10B4B9E420BD1210005209E
:40088000FFF76AFD21002D1A0620FFF765FDEDB22D1AEDB26D4246AB1D710023012587E6BC000020FF0100007C01002070B50020FFF7C6FD431E98410624134D40422B683C
:4008C00004401A68C021C03A0020FFF716FD6B6A1B78181AC0B2834203D12B681B68002B02D1002000F06EF9084B19681A00402901D0002C03D000231360FFF7E1FD8022CB
:400900001A6000F061F970BDBC000020B000002082B06A460B4B0C4900930C4B01930C4B1A600C4A1160C0461A68120F0F2A04D01A680020120F0A2A01D01868C0B202B055
:400940007047C046B6E9000016000080840100200800104004001040094B0A4A0A491A600A4A1160C0461A68120F0F2A04D01A680020120F0A2A01D01868C0B27047C046CD
:4009800008001040B6E80000150000800400104082B06A460B4B0C4900930C4B01930C4B1A600C4A1160C0461A68120F0F2A04D01A680020120F0A2A01D01868C0B202B093
:4009C0007047C046B6EA000017000080840100200800104004001040F0B50024304BC7B0029406000394984255D8A14253D0802206A8520000F046FD2A4B2B4D0493FF233C
:400A00002A492B4A04AF7B602F600A60C0462A680191120F0F2A03D02A68120F0A2A01D02C681C400294029B002B36D100F069FA0400FFF76DFF0390039B002B02D1FFF705
:400A40008BFF0290029B002B16D11A4A1A490492049A0198360416430496134A2F600160C0462968090F0F2903D01168090F0A2901D01368DBB20293039B002B07D1FFF71A
:400A800087FF0390039B002B01D0039B0293200000F03BFA01E004230293029847B0F0BDFF010000B6D70000080010400400104004000080B6D800000500008070B5050036
:400AC00000F01FFA0400102D04D803210E4A13688B4307E0202D07D803210B4A13688B4302390B4313600AE0302D05D80321064A13688B430139F4E7002000F063F82000B9
:400B000000F003FA70BDC04630001040024A034B11680B401360704700002240FFFFFFBF024B18684000C00F7047C046000022401B2800D901BE034B8000C31818681960F7
:400B40007047C04640000020F8B504000E00032900D901BE1B2C00D901BE032725003D40BD400635AF40AE4000F0CBF9A408054BA400E4182368BB431E43266000F0C5F9A7
:400B8000F8BDC04600E400E01F2318401E3B8340014A13607047C04600E100E01F2318401E3B8340014A13607047C04680E100E01F2318401E3B8340014A13607047C04621
:400BC00080E200E001BE7047034A044913689BB20B4313607047C0460CED00E00400FA0570B5802504002D02064BAC4205D9586800F07EF9044BE418F6E79868604300F085
:400C000077F970BDE40000200080FFFF37B500F0C3F8002842D000F074F91C21204B214A1B6812689B008A400B40920F1833D34080251D491D4A04000868ED0110401C4A1E
:400C40005A435219D20B013A0243192B01D8194B0EE0194D19481818EB18A0251A3B00781B786D031B182A43FF2B00D9FF239B051A43134D0A602B6830200193FFF71EFFFB
:400C80008021104AC905136814200B431360FFF7A7FF019B20002B6000F037F937BDC046080F0340280003400800224000F800C040420F000000D43FBC1400004DF3FF0F55
:400CC0003000104000002240F7B50500183D0400182D46D80126244B3700EB409F4340D100F00FF90190FFF71BFF0097002802D0FFF70CFF009607271C4E1D4A33681D49F9
:400D0000BB4333601C4BE3181B78DBB213601B4A1368BB4313601A4B0A68E31818787F239A43034013430B60322000F0E1F8182C0ED033681C3CA408BB433C401C433460AE
:400D4000322000F0D5F83368AD08BB431D433560009B012B01D1FFF759FF019800F0D5F800E001BEF7BDC04611111101080F03400C0F0340180F03404DF3FF0F100F034085
:400D800034F3FF0F10B5034B1B7B584300F0B0F810BDC046E4000020014B1868C00F704700002240014A024B1A6070476588EDAC3800034070B5154D04002B68144E9B0FA3
:400DC0009B07984215D0032233687C20934333602B689B0F00D09030FFF7D4FF00F091F82B68A40F9B009B08A4071C432C6000F08CF803223368934319002B689A0F5342B0
:400E0000534101330B43336070BDC0460C0222401402224010B5040000F073F80549064A0B681440054A134023430B600B6800F06CF810BD1002224004040400FBFBFBFFEE
:400E4000042270B5224C2368134213D021490B6813420CD0204B5D6908681540A84308605969914359619B68002B00D098470420FFF7D0FF80232268DB001A4215D01549E2
:400E80000A681A420DD0144A556908682B40984308605169114B0B405361D368002B00D098478020C000FFF7B5FF80232268DB021A420CD0074A12681A4204D0064B1B6907
:400EC000002B00D098478020C002FFF7A3FF70BD10022240F80000209C010020FFFBFFFF024B1868C006C00F7047C046040604400230800803D001300238FCD1C046C04672
:400F00007047EFF3108072B6704780F31088704710B500F055F810BD10B500F05FF810BDF8B504000F0016000120002C28D0002926D00A255D4300F07FF8002810D000F0D7
:400F40007BF80500AB20FFF71DFF00F075F88542F5D13900AF4200D929003180651807E00120013DFFF73CFE002DE4D1102007E0AC4204D000F048F820700134F8E70020B3
:400F8000F8BD70B501230C001500002805D0002903D000F095F800232C80180070BD00008021064A10B5136809060B4313600820FFF7EAFD00F006F910BDC046000025405B
:400FC00010B5054C2378002B03D100F085F801232370FFF7E5FF10BDB401002010B50820FFF7DCFD00F000F9054A082013685B005B0813600022034B1A60FFF7D9FD10BD56
:4010000000002540880F2540084B094A196813680020994208D013680133412B00D103000449C85C1360C0B27047C046C8010020C401002011020020044B1868044B1A6837
:401040001B68904200D24130C01A7047C8010020C4010020134B144A30B515681C681900A54208D1114B1C681F232340082B02D00F4B186015E013680133402B00D100239F
:401080000C68A342FCD002210A4CC0B221600A4CE0541360094B1A680A4202D11A680A431A6030BDC0010020CC0100200802254040022540800F2540D0010020880F2540B2
:4010C00070B504004518AC4204D02078FFF7C2FF0134F8E770BD000070B50024072104251E4A1F4B08201A601E4B1F4A1C601F4B1A601F4B1F4A13601F4A11601F4A063910
:4011000014601F4A11601F4A13601F4B1C601F4B1D60FFF743FD03210820FFF715FD1C490820FFF705FD1B4B1C601B4B1C601B4B1C601B4B1C601B4B1D601B4B1C601A68DA
:401140001A4B1A801A4B1C601A4B1C601A4B1C701A4B1C601A4B1C6070BDC0460B000002000025404000254001000A00480025400700008000032540040325401003254026
:401180004400254000022540040225405000254011120000880E2540C80E2540480F2540080F2540C80F2540880F2540BC010020C8010020C401002010020020CC0100206C
:4011C000C0010020F021054A13688B4360390B431360034B1A88034B1A60704700030240BC010020880F2540F021064A13688B431360054B1A68E423DB001340034A13807A
:401200007047C04600030240880F2540BC010020254B70B51B68002B00D09847234B1B685B071CD520241F2021490B680133412B00D100231F4A15681F4AAB4203D113681E
:401240001E4B1C7004E012681D4DD2B2EA540B601C4B1B680342E8D104221B4B1A601B4B1B689B071FD51F20194C1A4A21681368994210D013680133402B00D100231649E3
:40128000164DC95CC9B229601360154B1B680340082BEBD104E00221124A13688B4313600222114B1A6070BDB8010020CC0F2540C8010020C4010020400325401002002013
:4012C0001102002008032540C00F25408C0F2540CC010020C0010020D00100204002254008022540880F2540800F254002B4714649084900095C49008E4402BC7047C04650
:4013000003B47146490840004900095E49008E4403BC7047002243088B4274D303098B425FD3030A8B4244D3030B8B4228D3030C8B420DD3FF22090212BA030C8B4202D3B5
:401340001212090265D0030B8B4219D300E0090AC30B8B4201D3CB03C01A5241830B8B4201D38B03C01A5241430B8B4201D34B03C01A5241030B8B4201D30B03C01A5241A7
:40138000C30A8B4201D3CB02C01A5241830A8B4201D38B02C01A5241430A8B4201D34B02C01A5241030A8B4201D30B02C01A5241CDD2C3098B4201D3CB01C01A52418309BC
:4013C0008B4201D38B01C01A524143098B4201D34B01C01A524103098B4201D30B01C01A5241C3088B4201D3CB00C01A524183088B4201D38B00C01A524143088B4201D3D3
:401400004B00C01A5241411A00D20146524110467047FFE701B5002000F006F802BDC0460029F7D076E770477047C046014B18687047C0465C0100200E4B70B500251E00E9
:401440000D4CE41AA410A54204D0AB00F35898470135F8E700F040F8084B00251E00084CE41AA410A54204D0AB00F35898470135F8E770BDE4140000E4140000E41400003E
:40148000EC140000002310B59A4203D0CC5CC4540133F9E710BD03008218934202D019700133FAE770470000001600007700000000000000B5116A25003C0101EEDBC9B970
:4014C000AA9B8E82766B60564D443B332C241D17100A044300000000F8B5C046F8BC08BC9E46704729010000B1020000F8B5C046F8BC08BC9E46704701010000101500008C
:40150000B8000020A8000000F80000000000000000000000A8140000415352363530312D3230313831303233415352363530312D3230313831303233AC14000001000000D6
:401540000000E02EC05D00001800000000366E01040404000000000000000000000000000000000000000000000000000000000000000000D3140000000000000000000090
:4015800000000000000000000000000000000000000000000000000000000000000000000000000000000000000000000000000000000000FC00002000000000000000000F
:4015C00000000000000000000000000000000000000000000000000000000000000000000000000000000000000000000000000000000000000000000000000000000000EB
:401600000040002011160000353C0000353C000010B5034B83F3088803F09CF802F012FB0040002070B572B6304A314B31491A60314A324B324D1A60C022324B00241A601D
:40164000314BB03A1A600223304A1360304A11608D21304A1360304A1360304A11603049304A11608021304A4901116005212F4A11602F4A7B311160C0212E4A0904116063
:401680002D4A136030222D4B1A6012232B6003F04FF8182002F01AFFF022294B12011A60284B294A29491A60294A0D201460294A1A604122284B1C60284B1A60284B013AEC
:4016C0001A6002F043FE0D2002F06CFE8020254BC0051C6003F046F8112303222B60224B1A60224B1D321A6070BDC04699EE000000030240B10D0000FF0F00000004024020
:4017000030001040080004400C00044000030440080304400C03044018030440000404408E0D2C00080404400C0404401804044000050440080504400006044008060440FC
:40174000040301400000014041FF0080614A00000003014040FF00802800034004010140000101400C02224030003040000E3F4010B5064C2378002B07D1054B002B02D0E0
:40178000044800E000BF0123237010BDC001002000000000B0780000084B10B5002B03D00749084800E000BF07480368002B00D110BD064B002BFBD09847F9E700000000D3
:4017C000C4010020B0780000B80000200000000010B5031E09D00068002A01D0904207D201701A6801321A6002E0080002F0BAFA10BDF7B514000090019120270A00002CDB
:401800000FDD0199501A1178002901D00132F8E7844201DD241A00E00C0020279A0700D510370025DB070DD42500002D06DD089A39000098FFF7CCFF013DF6E7E543ED17B9
:401840002540641B2E00019B5B1B995D002905D0089A0098FFF7BCFF0136F4E72500002D06DD089A39000098FFF7B2FF013DF6E7E043C01720408019FEBDF0B58DB01799A9
:40188000039016001F00002901D116000F00100018430BD1302307A90B70189B4870149A00930398159BFFF7A4FF61E000251399A9420FD012990A290CD1AB420ADA1799D3
:4018C000A94204D0002756429F41013502E00125179F564200221F2407ABDA7404ABE418129BDB170493169B3A3B0593300038431ED0179B002B06D0129A049B30003900FA
:4019000003F0B8FE04E01299300003F06FFE0A00092A01DD059BD2183032013C227030003900129A049B03F0A5FE06000F00DDE70700002D13D0149B002B0CD0159B9B07C7
:4019400009D5189A2D210398FFF742FF149B0137013B149303E02D230027013C2370189B149A00932100159B0398FFF742FF38180DB0F0BDF0B5140000228FB007000D0044
:401980000992934203D00268013BD318099300262B78002B06D0252B00D0C9E06A786B1C002A06D1002F00D1CAE000223B681A70C6E0252A00D1BAE000202D2A01D1AB1C51
:4019C00001301D002B78302B03D1022301351843F8E700239C462B7819003039CAB2092A06D862460A235A438B189C460135F2E7732B07D1236854490434002B00D18EE035
:401A000019008CE06C2B3AD16B786C2B00D095E0AB78642B1CD15D3B07349C4323001A685B680A920B9361230493634609990293069101210A2302350834059103900191BE
:401A400000930A9A0B9B3800FFF717FF361875E0752B73D16E3B07349C43230009991A685B680691012105916031049161460291002102350191083403900A3112E0642BCD
:401A800001D0692B10D1099922680691002105916131049161460291012104340191D317039009310091CEE7782B09D10999226806910021D3170A930434059161230AE0F8
:401AC000582B10D122680999D317069100210A93412304340591049363460191103103900293009111E0752B11D122680999D3170A936123049363460691029300210A23B5
:401B0000043405910390019100930A9B9BE7632B14D123680DA90B70002304344B70099B6246009303003800FFF763FE8EE71D002978099A3800FFF74BFE0136013527E77A
:401B400030000FB0F0BDC046C07800000FB4002307B504AA02CA18000192FFF70BFF03B008BC04B018470EB40FB505AA02CA0190002301A80392FFF7FDFE04B008BC03B02B
:401B80001847000070B50424FF25114B1B68234214D002F08BF968210E4A030014600E4A28401268121852788A4304D1DBB20D2B01D00A2BE9D102F0D5F8E6E7074B1A68AA
:401BC00080239B001A4201D0054A136070BDC046CC0F2540C00F2540580100208C0F2540800F254010B50378002B04D1034802F0A5F802F095F8002010BDC046851B000078
:401C000070B50025064C257000F0F2FB0323606020006572A572E5722372FFF7E3FF70BDDC010020194B70B518680D23000A01305843182103F054FC1823441CA3429B41CD
:401C40000125134A5B42137002F09AF8114B1B68DB0B2B401B18002BF6D102F07BF8002812D18025A4B20C4E02F092F8200002F08BFC33682D022B4206D1200002F084FC6E
:401C8000336801202B4200D0002070BD04030140D20000200802254008032540012213B500240192009200233A210A4800F0A6FB23002200019400943321074800F09EFB96
:401CC00001940094230022003421044800F096FB13BDC046DC030020840300209003002010B5030003220121014800F090FB10BD900300200520704737B50024062002F0CE
:401D000053FA142000F03CFC0D4D23002800012232210194009400F071FB282000F030FC012303223221280001930094230000F065FB142000F024FC200002F035FA37BD1E
:401D40007803002010B5034800F069FB0128FAD010BDC0468403002070B572B60A4C0021200000F058FB094DC021280000F0C2FB0021280000F0BEFB0121200000F04BFB5A
:401D8000FFF7E0FF62B670BDDC030020B4030020F7B507000C00019200F038FC0F4D0021280000F038FB0E4EB9B2300000F0A2FB019BE3180193019B9C4205D0217830002E
:401DC00000F098FB0134F6E70121280000F023FB842F01D0FFF7B6FFF7BDC046DC030020B4030020F8B5050017000C0000F00EFC0F4E0021300000F00EFBA9B20D4DE7190C
:401E0000280000F077FB0021280000F073FBBC4206D00021280000F06DFB20700134F6E73000012100F0F7FAFFF78CFFF8BDC046DC030020B4030020F7B507000C000192C3
:401E400000F0E4FB114E0021300000F0E4FA104D0D21280000F04EFB390A280000F04AFBF9B2280000F046FB019BE718BC4205D02178280000F03EFB0134F7E730000121C8
:401E800000F0C9FAFFF75EFFF7BDC046DC030020B403002007B56B46D971073301221900FFF7CAFF07BD0000F7B507000C00019200F0ACFB134E0021300000F0ACFA124D4C
:401EC0001D21280000F016FB390A280000F012FBF9B2280000F00EFB0021280000F00AFB019BE718BC4206D00021280000F002FB20700134F6E73000012100F08CFAFFF704
:401F000021FFF7BDDC030020B403002013B56B46DC1D01222100FFF7C7FF207816BD0000F7B507000C00019200F070FB0F4E0021300000F070FA0E4D0E21280000F0DAFAEF
:401F4000B9B2280000F0D6FA019BE718BC4205D02178280000F0CEFA0134F7E73000012100F059FAFFF7EEFEF7BDC046DC030020B4030020F7B507000C00019200F046FB8A
:401F8000114E0021300000F046FA104D1E21280000F0B0FAB9B2280000F0ACFA0021280000F0A8FA019BE718BC4206D00021280000F0A0FA20700134F6E73000012100F0B9
:401FC0002AFAFFF7BFFEF7BDDC030020B403002010B5042100F00AFD10BD02207047000007B5012204480192009200233B21043000F004FA07BDC046F0010020002307B54E
:4020000004480193009303223B21043000F0F6F907BDC046F001002072B6704762B67047F0B585B002900391039C394A63005B0D9E18029D132E30DC002E13DA354A364B66
:4020400003F09AFD0022002303F000FB002859D0002C55DA63005B082B430025AB4251D02E4C4FE02E4F37413B0023402B434BD002980399274A284B03F07EFD00220023FE
:4020800003F0E4FA00283DD0002C03DA80235B033341E418BC43002534E0332E0ADD8023DB009E4230D1029A039B1000190003F063FD2BE001271B4A7F429B18DF4001954A
:4020C0003D4221D002980399124A134B03F054FD0022002303F0BAFA002813D0002C0DDA142E01D1013409E034239E1B333BB340ED18019B9D429B415B42E418BD4301E0B9
:4021000000252C00039402950298039905B0F0BD01FCFFFF9C7500883CE4377E0000F0BFFFFF0F00EDFBFFFFF0B585B002900391039D394A6B005B0D9E18029C132E2EDCE8
:40214000002E11DA354A364B03F016FD0022002303F07CFA002858D0002D53DB2C43251E53D000242F4D50E02F4F37413B002B4023434CD002980399284A294B03F0FCFC1D
:402180000022002303F062FA00283ED0002D03DD80235B033341ED18BD43002435E0332E0ADD8023DB009E4231D1029A039B1000190003F0E1FC2CE001271C4A7F429B18AC
:4021C000DF4001943C4222D002980399134A144B03F0D2FC0022002303F038FA002814D0002D0DDD142E01D1013509E034239E1B333BB340E418019B9C429B415B42ED18E3
:40220000BC4302E0802500242D06039502940298039905B0F0BDC04601FCFFFF9C7500883CE4377E0000F03FFFFF0F00EDFBFFFFF0B585B000900191019B3F485900490D9C
:402240000818DC0F009A132842DC00282DDA59004908114302D1009801996BE01903090B0A4351420A438021120B09035B0C0A405B041A430192314AE300D3181E685F6826
:40228000009A019B3000390003F076FC3B00320004F03CFE02900391039BE4075B005B08234303930298039944E0254901410D001D401543CFD049080D001D40154324D0A4
:4022C000132824D08B438021890201410B4320E033280ADD8023DB009842BCD1009A019B1000190003F048FC24E01648091801204042C8401042AED04008104209D0824332
:402300008020C0050841024303E02A0001E08022D2050193094BE40000921C1965682468009A019B2000290003F026FC22002B0004F0ECFD05B0F0BD01FCFFFFC8780000FC
:40234000FFFF0F00EDFBFFFF10B5FFF7A7FC10BD00487047D878000000487047DC78000000487047E178000013B5684602F08CF9044C019B1434009A03492000FFF7F3FB3A
:40238000200016BDF0010020E678000010B5040003F0B4FB011C0E4803F096FA0D4903F093FA05F0B7F900220B4B03F0E5FB00220A4B04F0ABFD03F0A9F9094B000218601E
:4023C000084A094B01201A60084B5C6010BDC046001BB74B000050410000E03F0000F03F0403014041FF008000000140BC000020014B58687047C046BC00002037B506AC56
:402400002478079D0094019500F05EF837BD10B500F044F810BD10B500F04EF810BD10B500F05AF810BD323810B5092819D803F04DF80515091818181818110DC8B201F0F1
:40244000BFFE0EE0C8B201F05DFE0AE0C8B201F0D5FE06E0C8B201F073FE02E0C8B201F08FFE10BD323810B5092815D803F02EF805110814141414140E0B01F0ADFE0CE0D1
:4024800001F04CFE09E001F0C5FE06E001F064FE03E001F081FE00E0002010BD190010B500F042F8034B1A78002A01D101321A7010BDC04624020020007810B540B2431CA3
:4024C00001D0FFF7B0FF10BD10B501704B1C02D00399FFF7F1FF10BD0023C35610B500205A1C02D01800FFF7BDFF10BD10B501F021FD10BD10B50C0001F056FD0028FBD131
:402500002000F62401F042FDFF3401F037FD002804D1013C002CF8D1024802E001F028FD80B210BDFFFF0000002906D00023C356342B02D1014BD033196070472802002035
:4025400004220B4B10B5196811420FD14022094B1968114205D01A60074BD0331B68984705E00122054B1968114200D01A6010BD1000044010040440280200201003044046
:4025800010B5024B1B68984710BDC0461801002070B501F0A1FB094B05001B68084C002B06D12368984763689847064B9B6900E0A3689847280001F093FB70BD2803002065
:4025C0004C01002018010020064B07481A6810B55043064A06498018186003F007F8080010BDC046C80000206D4EC64139300000FFFFFF7F014B1878C0B270472C0300205C
:40260000014B18707047C0462C030020074B10B51A78002A02D01B78062B03D1FFF79CFBFFF7DEFCFFF78EFB10BDC0462C03002010B50A0001000020FFF772FC10BD10B599
:402640000178E820C000FFF725FC002010BD000007B5030A01A90B70044B48705B78002B03D102220248FFF7E7FB07BD2C030020BC06000007B5030A01A90B70044B48703E
:402680005B78002B03D102220248FFF7D5FB07BD2C030020BE0600000C4B10B55B780400002B11D1D720C000FFF730FC0123210A984319400143D720C9B2C000FFF7EAFB90
:4026C000E1B20348FFF7E6FB10BDC0462C030020B906000013B501AC2070FFF78FFC012221008420FFF754FB0022014B1A7013BD2C03002013B56B46DC1DD871012221007B
:402700008020FFF745FB2278034B002A01D1013200E002221A7013BD2C03002007B50422064B01A91A70030C0B708870030A013A83204B70FFF72CFB07BDC0462C0300203A
:4027400010B51400FFF774FF2000FFF7E7FF10BD07B50522064B01A91A70030C0B708870030A023A82204B70FFF712FB07BDC0462C03002013B505220400084B9621084855
:402780001A70FFF787FB01A9230C0B700322230A82204B708C70FFF7FBFA13BD2C030020AC08000007B56A46030C1370030A53700B0CD3700B0A90701371517194200622FB
:4027C0006946FFF7E5FA0622014B1A7007BDC0462C030020002210B51100C520FFF7D8FA0722014B1A7010BD2C030020002210B51100D120FFF7CCFA10BD07B56B46D91DA9
:40280000087001229F20FFF7C3FA07BD07B56B46D91D08700122A020FFF7BAFA07BD07B56B46D91D087001229620FFF7B1FA07BD07B501A9087001228920FFF7A9FA07BD7B
:4028400007B5134B01A9984203D9E1230B70083318E0104B984203D9D7230B70013311E00D4B984201D9C1230AE00C4B984203D975230B700C3305E0094B984203D96B23CB
:402880000B7004334B7002229820FFF781FA07BD00E9A43580F8A9328044E52D000B6B1B40FC541913B501AC20706170A270210004229520E370FFF76BFA13BD37B56D4674
:4028C000040A6870E9706A71080A110A1A0AAA710822A8702971100069462C70EB71FFF757FA37BD13B501AC022221001220FFF779FA207863780002184316BD07B56B461F
:40290000D91D087001229D20FFF742FA07BD07B5072201AB10400A0C5A700A0A18709A70D970042219009720FFF732FA07BD000010B50400FFF7E0F92000FFF7D1F9FFF759
:402940000BFA0020FFF7D6FE0A4B1B78002B08D0FFF7D0F981010220FFF7D9FF7F20FFF767FF0120FFF7CAFF0122034B00201A7010BDC046C40000202C03002037B50F4D08
:402980000400AB78002B03D1FFF75AFF0123AB70200004F087FE0022094B03F019FC02F0B5FE01A9030E0B70030C4B70C870030A042286208B70FFF7EBF937BD2C0300207E
:4029C0008084EE3F07B56B46D91D044B0870587001228A20FFF7DCF907BDC0462C030020014B58787047C0462C03002073B5060000200D00FFF7F1FA0200012816D103008A
:402A000000210F2E04D10620FFF74CFF0E240BE00420FFF747FF0E240D2E05DC341CF31C01DA1B4B1C7864B2182126E0194B187802280DD0032806D001280DD10300002280
:402A4000052103200CE0022101230022080007E001230022032103E00123002207210420FFF720FF341CF31C01DA094B1C7863B2162B00DD1624382164B20748FFF70AFA8E
:402A800001A902228E204D700C70FFF781F973BDEF780000F0010020E708000013B5040008220021684604F0E8FE224B20785B78834201D0FFF786FF2378002B0CD0012B04
:402AC00037D16A46237C1370637C5370A37C9370E37CD370042228E0606804F0E3FD02000B000020144903F073FB0022134B03F093FF02F00BFE6A46030C1370030A907092
:402B00005370237BA068D370637B137104F0CAFD00220B4B03F05CFB02F0F8FD6A46030C5371030A9371D071082269468B20FFF72FF913BD2C03002080847E41000040404A
:402B40008084EE3F30B5050085B001AC09220021200004F092FE234B28785B78834201D0FFF730FF2B78002B0FD0012B38D1AB891A0A6370AB7B2270A370EB7B0622E37013
:402B80002B7C23716B7C637125E06B7AF12B07D11548FFF75DFD1548FFF76CFD022308E0F22B06D11248FFF753FD1248FFF762FD06236A88E371110A62702A79AB7AA27052
:402BC0006A792170E270AA7923722271EA7962712A7AA271092292B221008C20FFF7D8F805B030BD2C030020FFFF0000058000000F1D00002110000037B56D46069CEB7068
:402C0000230C28706970AA702B716946230A052288206B71AC71FFF7BBF80722014B1A7037BDC0462C03002007B501AB18705970022219008F20FFF7ABF807BD13B501AC32
:402C4000012221001520FFF7CDF820784042401016BD000073B501AC05000E00022221001320FFF7BFF80A4B5B78012B0BD10948FFF74CF9C009C0B2012804D10648FFF79D
:402C800045F9287001E023782B706378337073BD2C0300200407000002070000F0B50E00002585B002ABDC1D0700210030000192DD71FFF7CFFF3278019B01209A4204D847
:402CC00020783900FFF756F9280005B0F0BD000037B5040001AD032229001420FFF782F8184A51782170002902D001290CD020E02B78A16023716B785B425B10A371AB788D
:402D00005B425B1063711BE02B785B425B1023736B7859B2002901DB9B0802E0013BFF3B9B106373AB785B425B10A3735368236106E014220021200004F09FFD0F232370DA
:402D400037BDC0462C03002007B5022201A9030A487010000B70FFF71BF807BD0120704710B50020FFF7C6FC10BD000070B5164C250001C51548FFF7DBFD0020FFF7BAFCB8
:402D80000120FFF74CFD00210800FFF74DFF04210020FFF72BFE0023190018001A00FFF78DFD28000A4902F045FA20000949183002F040FA200008492C3002F03BFA002050
:402DC0004034207070BDC04634030020BD2F00005D2F00007D2F00009D2F000010B5FFF709FC0338C3B20020022B01D8014AD05C10BDC046F078000010B5FFF7BFFD10BDC9
:402E000010B5FFF71BFF10BD07B56B46D87107331800FFF714FC07BD70B500230D0001211A0006000800FFF749FDFFF7D9FD0D4C2300012801D1C33300E0BC3320001D708E
:402E4000B430FFF77FFE002229003000FFF778FC054B0434196F200002F0A4FA200002F0F1F970BD34030020B403002010B50420FFF730FC0220FFF783FB10BD10B5FFF7D6
:402E800091FC10BD73B5174C2300EC331E7825000D36F6B204240F2809D8013C072806D8013C032803D8013C844280414442C021002349001A000800FFF700FD00230A227D
:402EC0000093310020002C00FFF796FEFFF782FCFA212C34C900200002F064FA200002F0B1F973BD3403002070B50D001400FFF745FD2800FFF76CF8FFF778FC200004F04F
:402F00008FFB0022074B03F087FD02F0FFFB064C01001834200002F045FA200002F092F970BDC04600408F403403002010B5FEF7B1FF10BD10B5FEF7E9FF10BD10B592B25B
:402F4000FEF77AFF10BD10B592B2FEF7ADFF10BD10B5FEF7CFFE033010BD000010B50020FFF74EFB044B1B68002B03D05B68002B00D0984710BDC0463403002010B5002078
:402F8000FFF73EFB044B1B68002B03D0DB68002B00D0984710BDC0463403002010B50020FFF72EFB044B1B68002B04D09B69002B01D00020984710BD34030020012210B5EB
:402FC000024B40331A7001F0B1F810BD34030020010030B51F20002912D001220948041DD3001D00083D6559A94205D31D59A94202D2C318187A03E00132162AF0D1FEE7B0
:4030000030BDC046F078000010B50B4B012804D10A4A11701A00C33208E01A00BB321278012A08D1054A11701A00BC32B43311701800FFF787FD10BD34030020CC000020D9
:403040000023114970B51A0005000800FFF736FC002D08D00D4C29001834200002F0A2F9200002F0EFF80A4B1A0074321278002A04D00020FFF7CAFB064801E0986F8001B7
:40308000FFF766FB70BDC0464202000034030020B4030020FFFFFF000023022170B51A0005000800FFF70AFC002D08D00A4C29001834200002F076F9200002F0C3F8074B19
:4030C0001A0074321278002A01D0054801E0986F8001FFF74FFB70BD34030020B4030020FFFFFF0010B50B4C012807D00020FFF769FC230000227C335A700AE0FFF762FCAA
:4031000023007C3318785A78824202D0587000F003F810BDB40300200D4B10B57C330400187058700120FFF7DDFF002C06D0E8203421C000FEF7AEFE442105E0E820142114
:40314000C000FEF7A7FE24210248FEF7A3FE10BDB403002041070000F8B50C0016001D00FFF7C0FF2000FFF709FC0020FFF768FF0120FFF705FA02F023F907000024380024
:40318000210002F025F98C4207D1854205D9FFF755FD00B28642F1DA00E00124FFF766FE2000F8BD70B500250120FFF79BFF0020FFF7CEFA2C0001260120FFF7E1F9FFF7BF
:4031C0003DFD3040A84001350443202DF4D1FFF7FBF90419FFF74AFE200070BDF7B5474C250040352B78002B00D186E00026FEF713FF2E70FEF712FFFFF774FB050040487B
:40320000FFF7A2FDEB070CD5201D02F097F83000FFF7F6F92368B34203D01B68B34200D09847AB0721D52000183002F087F86B46344ED91D7E36FF223000FFF72FFD324F87
:403240003800FFF745FD2368002B0ED09B689C46002B0AD06B0608D40D230C2269463000FB56BA56C9796646B0476B0606D52368002B03D01B69002B00D098472B060CD54B
:4032800020002C3002F05AF82368002B05D09B69002B02D0E805C00F9847AB0520D5FFF7A9F904280AD1201D02F048F80020FFF7A7F92368002B13D05B680EE0FFF79AF9EB
:4032C00005280DD12000183002F038F80020FFF797F92368002B03D0DB68002B00D09847AB060AD52000183002F028F82368002B03D0DB68002B00D09847F7BD3403002032
:40330000FFFF0000B40300203405002070B50A2805D8084BC0001818846BC56B01E0002400250120884004F07BF92B00220002F04FFF70BD70790000F0B589B002930FAB7E
:403340001B881500009310AB1B880F00039311AB1B7806A9019312AB1A7813AB1B780600049321235B18DB7F059325235B18D97F7A4B743319700199794B002900D1FF2206
:403380001A70002E02D0012E7BD0E4E03000FFF734FA744C0B222300DC331E702300E0331D6023003800E8331A70FFF711FE2300E93318702300B4331E70009B0199DA001E
:4033C0002300B6331A8023000422B8331A7023001432B9331A702300BA331E702300173A5140BB33197023005D49BC330978197023000499BD33002900D0F1321A70260032
:4034000023000122BE33DC361A70FFF7A9FC3078431E9841C0B2FFF765FE3000FFF73EFB2000B430FFF78EFB4F490822103106A804F01AFA06A8FFF702F94C48FFF72CF988
:40344000280004F02FF902000B000020484902F0BFFE0022474B03F0DFFA040003980D0004F0DEF802000B002000290003F0D4FA414B002203F0D0FA02F048F9374B98676F
:4034800069E00020FFF7B9F96B46187BFFF7BEF9344C6A462300DC331E702300EEB2EC331E70314B127ADB19187E2300ED3318702300EE331A70002F03D10B3D012D04D82A
:4034C0000CE0012F01D10C2D08D00299FFF71EFF2A4A2B4B02F0C4F8002804D00122214BEF331A7002E01F4BEF33187023000122B433053E1A70964206D8009B0B2B03D8FE
:4035000023000B32C03303E06A46164B1288C0331A806A4623001279C2331A702300104AC333127801201A706A462300127CC4331A706A462300127DC5331A70FFF7D2FD0D
:403540002000DC30FFF7AAFA2000B430FFF7FAFA0C4A024B9A6709B0F0BDC046B4030020CC00002034030020F0790000FF0100000000F03F0000204000408F40E17A14AE49
:4035800047613040FFFF0000F0B587B005000EA806880FA800780291009010A800780CA9019013A81700007804C903900978002D02D0012D55D0B6E05F4C18002100DC3104
:4035C0000D702100E0310A6022000B21E8321170FFF7FEFC2300E93318702300E4331F602300B4331D702300F600B6331E8023000422B8331A7023001432B9331A70230062
:40360000BA331D7023000099173A5140BB33197023000199BD33002900D0F1321A70250023000122BE33DC351A70FFF799FB2878431E9841C0B2FFF755FD2800FFF72EFA4D
:403640002000B430FFF77EFA3C490822103104A804F00AF904A8FEF7F2FF3948FFF71CF861E0354C2000DC30057020002700EC30D5B205703148ED37C018007E38702700A4
:40368000EE373970002B03D10B3A012A04D80BE0012B01D10C2A07D0FFF738FE294A2A4B01F0DEFF002804D00122234BEF331A7002E0214BEF3318701F4B01211A00053D00
:4036C000B43211701A008D4205D80B2E03D80C22C0331A8002E01300C0331E806A4623001278C2331A702300184AC333127825001A706A4623001279C4331A706A46230006
:40370000127BC533DC351A70FFF72AFB2878431E9841C0B2FFF7E6FC2800FFF7BFF92000B430FFF70FFA0298FEF752FC084B149A1A6707B0F0BDC04634030020F0790000C8
:40374000FF010000E17A14AE47613040CC000020B4030020F0B50E0085B0002802D0012848D0B7E05D4F3B00B93318783B00B6331B88C008C01803F053FF0B003900BB3158
:40378000097802000020002901D0554900E0002102F0F2F9040030000D0003F041FF02000B002000290002F0E7F90B003900BD31097802000020022901D0002101E08021E0
:4037C000C90502F0D9F90022464B03F025F9E037040038680D0003F065FF02000B002000290002F0F5FC00223F4B03F015F9FEF71FFD6CE0394C76002300EC331D7823001C
:40380000ED3318782900FFF781FD230000900191C033188803F004FF0022344B02F0ACF9009A019B03F0F8F8230002900391C4331B78701B9B000730C0182300C2331A786A
:4038400080001423012A00D00023C01A03F0E8FEEF34060020780F00431E98414000281A800003F0DDFE02000B003000390002F0AFFCFEF759FC194B0400EE33187803234A
:403880000D001840043003F0CBFE22002B0003F0C3F80022002304000D0001F0D7FE0022104B002805D02000290002F065F902000B000098019903F0AFF8029A039B02F084
:4038C0005BF90B4A0B4B02F057F9FEF7A9FB01F01DFF00E0002005B0F0BDC046340300200000F03F0000204000408F40000011402B8716D9CEF7EF3F10B562B6FEF7F6FDDA
:40390000FEF77EF9044800F0EBFB01F0FFFB01F075FB00F077F8FEE74125000010B50548FEF714F9044BDB6A98470422034B1A7010BDC0468E7A0000147A0000CE00002027
:4039400010B50548FEF702F9044BDB6A98470522034B1A7010BDC046997A0000147A0000CE00002010B50548FEF7F0F8044BDB6A98470222034B1A7010BDC046A77A00001F
:40398000147A0000CE00002010B50548FEF7DEF8044BDB6A98470322034B1A7010BDC046B57A0000147A0000CE000020F7B50F001E000F4B1500DB6A019098470D4C0E4B11
:4039C0003A00019920005F8003F04EFF230040331D700123084A4134084813702670FEF7B5F8320029000648FEF7B0F8F7BDC046147A000048050020CE000020C17A000077
:403A0000CC7A0000F0B57B488DB0FEF79FF8FEF79BFC794C794B20006364794B4430E364784B0026A364784B01272365774B6365774B1B680B939847754B7648DB680B9386
:403A40009847754B3200089308230293013B00936F4B0E21DB6938000B930B9D3300079606960596049703960197A84708230193674B07229B6931000B9338003B000B9D56
:403A8000099708960796069605970496039602960096A847FA205E4B80005B6B0B9398475B4D5E4E30780138042800D99CE001F00DFD0375759494007388002F3AD0002BF8
:403AC00068D004225649200003F0DFFE00281FD15448FEF73BF850232370492363700533A3707288073BE370433B934204D2191FE1540133DBB2F8E70120FEF741FD4A48C2
:403B0000FEF724F8AB6AB17820000B93984741E0434B0422591D200003F0B7FE0600FA206B6B80000B93002E02D19847370031E098472FE0002B2DD0394904220531200036
:403B400003F0A3FE00281FD13848FDF7FFFF502323704F236370013BA3707288073BE370433B934204D2191FE1540133DBB2F8E70120FEF705FDAB6A2000B1780B939847D5
:403B80002B48FDF7E3FF05E0FA206B6B80000B93012798470022214B1A7025E0002F1CD050232370492363700533A3707288073BE370433B934204D2191FE1540133DBB214
:403BC000F8E70120FEF7DCFCAB6A2000B1780B9398471548FDF7BAFF04E0FA206B6B80000B93984700233370FEF7D2FC6B6E0B93984756E7EC7A0000480500201D390000FD
:403C0000AD390000413900006539000089390000147A000000A1BC33B80B0000CE000020847A0000037B0000147B0000217B0000327B000010B503F0EBFD03680C2B00D18E
:403C4000FEE7FEE7F8B500250F49104B01394A1C14D000221F685C689E68A018B24203D0B858A0500432F8E70200DE68141AA64201D020C2FAE710330139E8E703F0CEFD6E
:403C8000FFF73AFEFEE7C046010000008C7D0000002370B50B480C4C0C4D9A002100032B00D8A958013381502C2BF6D1FDF7BAFC074B1A68002A00D11A608022054B920534
:403CC0001A6070BD00000020353C000000160000B000002008ED00E0EFF3108072B6704780F31088704704480449016070470248024901607047000004ED00E0000000107F
:403D00008021064A10B5136809060B431360082000F048FB00F0B8F810BDC0460000254010B5054C2378002B03D100F03DF801232370FFF7E5FF10BDA8050020014B58604B
:403D40007047C046A8050020014B18687047C04640032540024B18681F2318407047C046080325401F2204490B681340082BFBD0024B18607047C04608022540400225400A
:403D8000024B18681F2318407047C0460802254010B500F09FF810BD10B500F0B9F810BD10B500F03FFA10BD70B50024072104251F4A204B08201A601F4B204A1C60204B9E
:403DC0001A60204B204A1360204A1160204A06391460204A1160204A1360204B1C60204B1D6000F0E9FA2100082000F0BBFA1D49082000F0ABFA032000F0DEFA0321080087
:403E000000F0B0FA1849032000F0A0FA8022174B92001C60164B1C60164B1C60164B1C60164B1D60164B1A601A68164B1A8070BD0C000002000025404000254001000A00AB
:403E4000480025400700008000032540040325401003254044002540000225400402254050002540414B0000A13D0000880E2540C80E2540480F2540080F2540C80F25407E
:403E8000880F2540B0050020F021054A13688B4360390B431360034B1A88034B1A60704700030240B0050020880F254010B5FFF751FF03000020834201D0FFF745FFD822B1
:403EC000034B92001968114201D000201A6010BDC00F254010B50B4B1A780B4B002A04D080211A6889010A4302E01968074A0A401A6000F097F9032000F068FA032000F027
:403F000051FA10BDD200002048002540FFDFFFFF10B5032000F050FA10BD00008021044A10B5136809060B43136000F045F810BD0000244010B5054C2378002B03D100F002
:403F40007BF801232370FFF7E9FF10BDB205002010B500F043F8044A13685B005B0813600022024B1A6010BD00002440880F2440014B18687047C04640032440024B186899
:403F80001F2318407047C046080324401F2204490B681340082BFBD0024B18607047C0460802244040022440024B18681F2318407047C04608022440F021054A09011368DC
:403FC0000B431360034B1A88034B1A607047C04600040240B4050020880F2440094B10B518680007C00F00F031F9074A074B11680B401360064B1A6820231340054A1380C3
:4040000010BDC0462000244000040240FFF0FFFF880F2440B40500200549064B0A6880061340C02212051040184308607047C04620002440FFFFFFF307210020104A114BFD
:4040400010B51A60104A114B1A60114B114A1360114A1160114A1360114B1860114B1860114B1860114B1860114B1860114B1860114B18601A68114B1A80FFF7CDFF10BD3A
:40408000070000010000244001000080200024400701008000032440040324400002244004022440880E2440C80E2440480F2440080F2440C80F2440880F2440B4050020EC
:4040C00010B5040000F035FDC021044AA40113688B431C43146000F030FD10BD04E400E010B51024044B1C60044B18650220FFF7E7FF034B1C6010BD80E100E000000020AD
:4041000000E100E04023044980010A689A43D2B2034013430B60704700040440024B18684006C00F7047C046040404404023034A1068184010608009C0B2704710040440D2
:4041400008230449C0000A689A43D2B2034013430B60704700040440024B18680007C00F7047C04604040440034A044B116840050B4018431060704708040440FFFF1FFFF2
:404180007F23044AC00111680B401843C0B210607047C04600040440024B18680006C00F7047C04604040440034A044B116840050B4018431060704708050440FFFF1FFF09
:4041C0007F23044AC00111680B401843C0B210607047C04600050440024B18680006C00F7047C046040504403821034AC00013688B43184310607047080604400223044966
:4042000040000A689A43D2B2034013430B60704700060440024B18688007C00F7047C046040604400123024A106818401060704710030440034A044B116880010B4018433E
:4042400010607047080404403FFEFFFF0423044980000A689A43D2B2034013430B6070470004044070B5050000F063FC0400102D04D803210E4A13688B4307E0202D07D854
:4042800003210B4A13688B4302390B4313600AE0302D05D80321064A13688B430139F4E7002000F09DF8200000F047FC70BDC04630001040024A034B11680B401360704717
:4042C00000002240FFFFFFBF024B18684000C00F7047C04600002240F8B5040000F029FC2600042316499E43022E20D103220B68144D93430B602B68023A9343A208134352
:404300002B608025104B2D061A682A431A6005221F68013A37431F601F68D2B2B7430A4D1F60002AF4D12B685B005B082B6003230A689A43234013430B6000F0FEFBF8BD97
:404340002800034000002F4020002F401B2800D901BE034B8000C318186819607047C04640000020F8B504000E00032900D901BE1B2C00D901BE032725003D40BD400635D4
:40438000AF40AE4000F0D5FBA408054BA400E4182368BB431E43266000F0CFFBF8BDC04600E400E01F2318401E3B8340014A13607047C04600E100E01F2318401E3B834073
:4043C000014A13607047C04680E100E01F2318401E3B8340014A13607047C04680E200E001BE704770B5802504002D02064BAC4205D9586800F094FB044BE418F6E7986897
:40440000604300F08DFB70BDD40000200080FFFF37B500F099F9002842D000F08AFB1C21204B214A1B6812689B008A400B40920F1833D34080251D491D4A04000868ED0112
:4044400010401C4A5A435219D20B013A0243192B01D8194B0EE0194D19481818EB18A0251A3B00781B786D031B182A43FF2B00D9FF239B051A43134D0A602B683020019320
:40448000FFF7F0FE8021104AC905136814200B431360FFF7A7FF019B20002B6000F04DFB37BDC046080F0340280003400800224000F800C040420F000000D43F3F7B000085
:4044C0004DF3FF0F3000104000002240F7B50500183D0400182D46D80126244B3700EB409F4340D100F025FB0190FFF7EDFE0097002802D0FFF7DEFE009607271C4E1D4ABA
:4045000033681D49BB4333601C4BE3181B78DBB213601B4A1368BB4313601A4B0A68E31818787F239A43034013430B60322000F0F7FA182C0ED033681C3CA408BB433C4050
:404540001C433460322000F0EBFA3368AD08BB431D433560009B012B01D1FFF759FF019800F0EBFA00E001BEF7BDC04611111101080F03400C0F0340180F03404DF3FF0F8C
:40458000100F034034F3FF0F10B5034B1B7B584300F0C6FA10BDC046D400002010B5002404210C4B0C4A1C601C615C609C60DC600A4B1A600A4A13680B43FA211360094B33
:4045C0008900186900F08CFF074B1860074B1C6010BDC046B8050020654600003C00002010E000E0D400002014E000E018E000E00121024A13688B431360704710E000E0C6
:404600000221024A13680B431360704710E000E010B5FFF7F5FF0121024A13680B43136010BDC04610E000E010B5054C6369002B03D1FFF7B3FF01236361FFF7E9FF10BD30
:40464000B80500200221024A13688B431360704710E000E0024B1868C003C00F7047C04610E000E010B5FFF7F5FF012808D10024044BE358002B00D098470434142CF7D146
:4046800010BDC046B8050020144B1A78144BD1B201601B781B020B431A000360114B1B781B041343104A036012781206134303600E4B1A780E4BD1B241601B781B020B43B9
:4046C0001A0043600B4B1B781B0413430A4A436012781206134343607047C04678F2FF0F79F2FF0F7AF2FF0F7BF2FF0F7CF2FF0F7DF2FF0F7EF2FF0F7FF2FF0F01200A4AFF
:40470000136883431360022311689943116007492E330A689A43203B1A430A6007220B68934303430B60704700002240000F224010B5FFF7E3FF8021024A090613680B43A9
:40474000136010BD00002240014B1868C00F704700002240014A024B1A6070476588EDAC3800034070B5154D04002B68144E9B0F9B07984215D0032233687C2093433360C9
:404780002B689B0F00D09030FFF7FEFE00F0D1F92B68A40F9B009B08A4071C432C6000F0CCF903223368934319002B689A0F5342534101330B43336070BDC0460C022240E5
:4047C0001402224010B50400022802D90020FFF707FE044BE40018680134E0400123184010BDC0461002224070B504000D00022802D90020FFF7F4FD012D02D90020FFF72C
:40480000EFFD2000FFF7DEFF00280AD101210800E400A0402940A140024A136883431943116070BD0C02224070B504000D00012802D90020FFF7D4FD2000FFF7C3FF002846
:404840000BD10123E4000234A340044A116899430B002900A1401943116070BD0C0222400C4B1A6802431A60C20703D5022219681142FCD0C20504D5802292001968114274
:40488000FCD0C20304D58022920219681142FCD07047C046100222400C4B1A6882431A60C20703D5022219681142FCD1C20504D58022920019681142FCD1C20304D5802254
:4048C000920219681142FCD17047C04610022240094A10B51168136812685C0A4B082343520C1343DB0705D4044A054B11680B401843106010BDC046100222400C0222405A
:40490000F7F7FFFF70B506000C00012802D90020FFF766FD0C4DC9202B689B0F00D06C38FFF732FE09493601B140B440084A432013688B431C4314602B689B0F00D0243816
:40494000FFF722FE70BDC0460C022240FFFF000008022240074B1B689B0309D40649074B0A6800061340F82252051040184308607047C046100222400C022240FFFFFFE056
:4049800010B501280AD0002804D002280AD1084B18680BE0074B186880B207E0054B1868000C03E00020FFF71BFD002010BDC046040222400002224010B5040000F0B9F86F
:4049C0000549064A0B681440054A134023430B600B6800F0B2F810BD1002224004040400FBFBFBFF10B5022805D8054B80001B189868996003E00020FFF7F2FC002010BDF9
:404A0000D005002010B502280BD8084B8000C158074B5A698A435A61064A13680B43136002E00020FFF7DCFC10BDC046587B0000D0050020E800002010B5022807D8064A09
:404A400006498000136841588B43136002E00020FFF7C6FC10BDC046E8000020587B0000042270B5224C2368134213D021490B6813420CD0204B5D6908681540A8430860D7
:404A80005969914359619B68002B00D098470420FFF792FF80232268DB001A4215D015490A681A420DD0144A556908682B40984308605169114B0B405361D368002B00D047
:404AC00098478020C000FFF777FF80232268DB021A420CD0074A12681A4204D0064B1B69002B00D098478020C002FFF765FF70BD10022240E8000020D0050020FFFBFFFFCD
:404B0000044B054A196810400843186019681142FCD170471002224008080800000000000230800803D001300238FCD1C046C0467047EFF3108072B6704780F310887047C4
:404B4000034B10B51B68002B00D0984710BDC046AC050020014B186859687047E8050020022900D80321016041607047704700207047000070B50220FFF702FF064B0200D1
:404B800099681C695D690E000021901B24184D411C615D619A6070BDE8050020F8B5FFF7C8FF05000220FFF7EBFE104C0600A168226963690F000021F01B12184B4128004B
:404BC00022616361A660FFF7B8FF20696169FA220023920000F06EFD4D04C20B2A43CB0BA069E16980185941F8BDC046E805002070B50600FFF7D2FFFA22002392000D00BE
:404C0000040000F037FD3280FA22290092000023200000F02FFD70BDF7B507000D000026FFF7BCFFFA2200900191920038000023310000F03FFD2A003300074C8018594136
:404C4000A569E669009A019B521BB341801A9941A061E161F7BDC046E805002070B50D000400FFF79BFF001BA94170BD10B5FFF795FF024B00211B68C01A10BDE8050020D6
:404C800010B5FFF78BFF024B1860596010BDC046E805002010B500F0DBFB10BD10B50400054800F0C9F9FFF7E1FF002C00D10334200000F0C9F910BDEB4C0000012370B508
:404CC000037205000468FFF7D1FF0322002380185941002901D1A04203D9FFF7C7FF033028602868FFF7DAFF70BD10B500F0EEFA10BD10B500F03EFA10BD10B5FFF772FB86
:404D000010BD10B5FDF774FB10BD10B5FDF73EFB10BD10B5FDF728FB10BD10B5FDF720FB10BD10B5FDF718FB10BD10B5FDF710FB10BD70477047704770477047274B284908
:404D40001A68284B1A60284B284A1B680B60284B1B681360274B1868274B1860274800684860274800685060264800685860264800688860254800689060254800689860C8
:404D800024480068C86024480068D06023480068D8602348006808612248006810612248006818612148006848612148006850612048006858612048006888611F48006811
:404DC00090611F48006898611E480068C8611E490968D1611D4A1268DA617047000002402006002080060020000004406006002008000440180004404006002000010440DB
:404E00000801044018010440000204400802044018020440000304400803044018030440000404400804044018040440000504400805044018050440000604400806044052
:404E400018060440000704400807044018070440284B29491A68294B10B51A600A68284B1A60284A284B10681860284B28481C6804604C68274804605468274804605C68DC
:404E8000264804608C68264804609468254804609C6825480460CC6824480460D46824480460DC68234804600C69234804601469224804601C69224804604C692148046031
:404EC0005469214804605C69204804608C692048046094691F4804609C691F480460C8691E490860D1691E4A1160DA691D4B1A6010BDC04680060020200600200000024005
:404F0000000004406006002008000440400600201800044000010440080104401801044000020440080204401802044000030440080304401803044000040440080404402B
:404F40001804044000050440080504401805044000060440080604401806044000070440080704401807044010B50020FFF73CF9002000F04FFA002000F056FA0020FFF7F8
:404F800013F90020FFF7F0F8002000F057FA0020FFF750F910BD10B5FCF744FE01280DD100F01EFAFFF7CAFEFFF7DEFF00F05EFAFFF74EFF00F024FAFEF7EEFE10BD000079
:404FC00010B50C4B0133DA7F042A04D8DA7F0132D2B2DA770DE00024DC77FFF709FBFFF731FB72B6FFF7D7FF034B1C60FFF71CFB62B610BDE8050020CC05002010B5802406
:4050000064022000FFF748FC80200003FFF778FD1F20FFF79FFC07490220FFF7E3FC0220FFF7F0FC01210220FFF7DEFB2000FFF717FC10BD754B0000002802D0014A106009
:40504000012070470C060020F8B505000020FFF7F3FC0120FFF7F0FC0220FA27FF30FFF71BFC2648FFF74CFDFF00254EBD4220D9012439003471280000F0B8FA0020B160D8
:405080002049FFF73FFC3900280000F029FA01002000FFF737FC00210800FFF7A5FB21002000FFF7A1FB2000FFF7ACFC0220FF3020E0FA20002480003471684302F0F2FA0B
:4050C0000022114B01F084F800F020FB411E2000FFF718FC21000120FFF714FC01212000FFF782FB21000120FFF77EFB2000FFF789FC0120FFF7B4FBF8BDC0460808000057
:405100000C060020FFFF000080843E40022010B5FF30FFF7C1FB1348FFF7F2FC0020FFF78BFC01240120FFF787FC80200E4AC005136823431360FFF715FB0820FFF7C8FB62
:4051400021000020FFF770FB21002000FFF76CFB06490020FFF746FC05492000FFF742FC10BDC04608080000000022408D510000A9510000022010B5FF30FFF78DFB0248AB
:40518000FFF7BEFC10BDC0460808000010B50020FFF752FCFFF7EEFF024B1B68002B00D0984710BD0C06002010B5084CA068002802D0FFF749FF08E00120FFF73DFCFFF720
:4051C000D9FF2368002B00D0984710BD0C06002070B50B4CA36898476368050098470021084B401B1B68002B08D01A68904202D2121A1A6000E019601B69F4E770BDC04650
:40520000180100201806002010B5024BDB69984710BDC04618010020054B10B51A68002A01D00021117202611860FFF7EDFF10BD180600200023C160036043600372036195
:4052400070470000F8B50400FEF746FD0500002C13D01C4F3A681300002B03D09C420CD01B69F9E7616823722160174B002A08D15B6898472000FFF7CFFF2800FEF730FD2A
:40528000F8BDDB68984723680600C2183B68226019688A4205D2FFF79BFF23689E1B2660E8E719691869002808D00868824202D90B000969F6E71C612161DEE71C6120610C
:4052C000DBE7C046180600201801002070B5FFF77FFF184A13681400002B05D1FFF778FF206800281FD123E01969DB681160002B0CD1FEE71D68104BDB68984700290BD0AB
:4053000023681A69DB682260002B04D098472368002BEFD1E2E7FEE7A842F1D823681B68002BEDD0DAE7037A002B01D1FFF76CFF70BDC0461806002018010020F8B50400F8
:40534000FEF7CAFC154D06002B68002B21D0002C1FD0A34214D1237A2769002B0DD0002F08D0002323722F60FFF732FF2868FFF74BFF0CE00A4B1B6998472F6007E01300CF
:405380001A69002A03D09442F9D122691A61002323723000FEF7A4FCF8BDC046180600201801002070B50D000400FFF7C7FF034B29009B6A2000984770BDC046180100203F
:4053C00010B5024B5B6A984710BDC0461801002010B5024B1B6A984710BDC04618010020054B064A1B6810B5D90F1170002B01DAFEF7AEFD10BDC046000024401C060020F9
:4054000010B5034B1B78002B01D0FEF787FD10BD1C0600203821034AC00013688B43184310607047080304403821034AC00013688B43184310607047080404400721034ACC
:4054400013688B43184310607047C0460804044010B5FFF76EFB0421034A13688B43136030BFFFF76AFB10BD10ED00E0002313B50193FFF75EFB104B04001A6801231A4296
:4054800005D003210D4A019313688B43136004210B4B0C4A1B889BB213600B4A13680B43136030BF019B002B02D00620FEF714FF2000FFF742FB13BD00002F4028000340D4
:4054C00052F2FF0F0400034010ED00E002B4714649084900095C49008E4402BC7047C046002243088B4274D303098B425FD3030A8B4244D3030B8B4228D3030C8B420DD325
:40550000FF22090212BA030C8B4202D31212090265D0030B8B4219D300E0090AC30B8B4201D3CB03C01A5241830B8B4201D38B03C01A5241430B8B4201D34B03C01A524126
:40554000030B8B4201D30B03C01A5241C30A8B4201D3CB02C01A5241830A8B4201D38B02C01A5241430A8B4201D34B02C01A5241030A8B4201D30B02C01A5241CDD2C309F6
:405580008B4201D3CB01C01A524183098B4201D38B01C01A524143098B4201D34B01C01A524103098B4201D30B01C01A5241C3088B4201D3CB00C01A524183088B4201D34F
:4055C0008B00C01A524143088B4201D34B00C01A5241411A00D20146524110467047FFE701B5002000F006F802BDC0460029F7D076E770477047C0468446101C62468C465B
:40560000191C634600E0C0461FB501F09BF9002801D40021C8421FBD10B501F0EFF84042013010BD10B501F08DF9002801DB002010BD012010BDC04610B501F083F90028B1
:4056400001DD002010BD012010BDC04610B501F015F9002801DC002010BD012010BDC04610B501F00BF9002801DA002010BD012010BDC046002B11D1002A0FD1002900D112
:40568000002802D00021C943081C07B4024802A14018029003BDC0465DFFFFFF03B4684601B5029800F050F8019B9E4602B00CBC7047C046F0B54F464646C0B41604360CB3
:4056C0009946330005042C0C070C150C63437E436F4365431C0CAD1964199C46A64203D980235B02984647446346250CEF191D044B464A4343432D0C240464199918C919D0
:4057000020000CBC90469946F0BDC04670B500220C4B04000D00FFF7A3FF002804D12000290001F047FF70BD064B00222000290001F0ECFB01F03EFF80231B069C4660441C
:40574000F1E7C0460000E041F0B54D46564644465F46F0B4924683B004000D0099468B422FD82CD04946504602F046F829000600200002F041F8331A9846203B9B4600D5AD
:4057800074E053465A4693401F005346424693401E00AF4229D826D05B46A41BBD41002B00DA79E0002200230092019301235A4693400193012342469340009319E082424F
:4057C000D0D900220023009201930C9B002B01D01C605D600098019903B03CBC90469946A246AB46F0BDA342D6D900220023009201934346002BE8D0FB0772081A434646D1
:405800007B080EE0AB4201D1A2420CD8A41A9D41012024196D410021013E24184D41002E06D0AB42EED9013E24196D41002EF8D15B460098019900196941002B22DB2B00DC
:405840005A46D3402A004446E2401C005B461500002B2CDB26009E40330026004746BE403200801A994100900191AEE7424620239B1A5246DA40414613004A468A40170019
:405880001F4382E7424620239B1A2A0046469A402300F3401343D5E74246202300219B1A0022009101920122DA40019282E74246202326009B1ADE402F00B4469740664615
:4058C0003B003343C9E7C046F0B5564644465F464D46F0B444024600C70F83B08846650A360EBA463DD0FF2E22D00023EC00802599469B46ED0425437F3E43465C0258008F
:40590000DB0F640A000E984636D0FF2830D080230021E400DB041C437F38301A0190484642460843724E800030587A4013008746002D44D108239946063B9B46DDE7012266
:40594000FF2000241A406402C305640AD2071C431443200003B03CBC90469946A246AB46F0BD002D20D104239946033B9B46C4E7002C17D1022102E0002C0AD10121321ADD
:4059800001924A4643460A435A48920082587B409746200001F012FF431F76309C4040420021BAE70321B8E7280001F007FF431F9D4000237630464299469B469DE70C2319
:4059C0009946093B9B4698E780240022E403FF20B9E70024C2468B465A465346022AAED0032A7DD0012A31D1012200201A400024A9E70122101A1B2856DD1A40002000247F
:405A0000A1E78023DB031D424BD18023DB032B435C02640A3A00FF2095E76D016001854230D2019A0024013A01921B220127290064006D00002901DBA84201D82D1A3C4340
:405A4000013A002AF3D16A1E95412C4301987F300028CEDD620704D00F222240042A00D00434220103D5244A019814408030FE2800DD64E70122A401640AC0B21A4062E770
:405A80002C00A9E72D1A1A220124CFE76B02BCD500248023DB031C436402640A4246FF2051E71C42B3D1F4E721002022C140101A8440621E94410C43620704D00F22224094
:405AC000042A00D00434620104D5012201201A40002438E70122A401640A1A40002032E78023DB031C436402640A5246FF202AE7647B0000A47B0000FFFFFFF770B5041ED5
:405B000028D001F05BFE9E231B1A962B0ADC9622D21A94406202520AD8B25202520AC005104370BD992B18DC9922D21A9440114A2240610704D00F210C40042C00D00432F1
:405B4000510103D50B4B1A409F231B1A9201520AD8B2E2E700200022DFE705222500121AB921D5402200C91A8A40541EA2412C001443DCE7FFFFFFFBF8B556465F464D46C0
:405B80004446F0B40F00FD0FAA4609037C002E005F00450F490A7F0D2943C5001803BC46400A570F640DDB0F3843D2009A4500D1AAE06646A61B002E00DCFFE06346002B5A
:405BC00039D10300134300D0D9E06B0709D00F232B40042B05D02B1DAB42AD416D4249191D000B0200D482E0CA4B01349C4200D1FEE00A005646C84BED081A40500764059A
:405C000052020543120B640D002112030B0D1B056405120B1A436308C04CF60714401C43640064083443280021003CBC90469946A246AB46F8BDB74B9C42C6D080231B04BF
:405C40001843382E00DDEBE01F2E00DD1EE120239B1B9C4603006746BB40984613004746F3403B436746BA40571EBA4113430200F240EB1A9D42B6411D008A1A7642911B3C
:405C80000B0231D54A02560A002E00D1B4E0300001F094FD0300083B1F2B00DDB5E020222900D21AD1409E400A009D4032439C4200DDB1E01C1B631C1F2B00DDD5E020211D
:405CC00014002800C91A8C40D8408D400443DA40681E854111002543002476E74146314300D134E2310045466B0700D06FE756464807ED08C9080543864B9C4235D00A033D
:405D00006405120B640D7FE76346E31A9B46002B00DC8BE06746002F3CD07E4FBC4200D153E780273F0438435B46382B00DCF7E00243501E82410020D2B253194218AB4266
:405D400089411D00494289180B02CDD5714B01349C4200D13DE101206F4A6B080A4028401843D507054351082FE72B000B4300D1CBE180231B030B431A03120B44E7013E0D
:405D8000002E6DD1AE1AB5429B41091A5B42C91A350075E70700174300D116E701235B429C46E3445B46002B00D0E0E0AA18AA429B4109185B4259181500C5E7002E75D165
:405DC000661C7605760D012E00DCF3E0AE1AB0464545BF410E1A7F42F61B370200D48FE0551BAA42B641411A76428E1B9A464BE756460022002507E7280001F0DFFC203051
:405E00000300083B1F2B00DC49E72A002838824000259C4200DC4DE73F49E41A1140D4E60243501E8241D3B2002222E7002B00D0F3E0631C9C465B055B0D012B00DC9FE032
:405E4000344B9C4500D1C3E0AA180918AA42804140424118CD075208154349086446B4E62C4B9C4200D0ECE6AFE611001F3CE1400C00202B00D17FE04021CB1A9A401543B0
:405E80006A1E95410021254300242DE733000700203BDF403B00202E70D04027BE1BB0400243501E824113430022E2E6002C4FD0184CA44500D1ABE0802424047642214384
:405EC000382E00DDDFE01F2E00DD43E12027BC1BA1460C004F46BC40A0462C004746F4403C434F46BD406F1EBD41F1402C43151BAA429241411A5242891A64469A46BFE6F1
:405F000041464546314300D0BEE6002600240025F2E6C046FF070000FFFF7FFFFFFF0F801F2B59DC2027FF1ABC46070063469F405B46B9461700DF40B8464F4643461F4347
:405F400063469A40531E9A415B463A43D840F4E60C002C435CD0F643002E55D1551BAA42A441411A6442091B9A46644688E6964FBC4200D0D8E628E6002280E700208FE712
:405F80000B002B43002C00D0C2E0002B00D101E10300134300D118E6AB18AB42B6410918764271180A0200D409E1884A1D00114064460AE6002C5BD10E002E4300D08AE006
:405FC0000100114300D1C2E0010015009A46FCE56446002100258FE620235B429C46DC4463460700DF405B46BC46202B00D1ACE040235F46DB1B98400243501E82416346AC
:4060000013431A00002098E66F4CA44500D057E70100150064469A46D7E5002C39D10C002C436ED0DB43002B1AD0674CA44568D0382B00DDA4E01F2B00DDAEE020240F0082
:40604000E41AA740B9462F00DF40B846A3464F46444627435C46A5406C1EA541D9403D43AD1895429B4109185B42591864466BE60C002C4315D1010011437BD00100150035
:406080009A46514CA1E50D43691E8D410021ECB22DE74D4CA44534D0802424045B422143C6E7040014434ED0ED084C072C438025C9082D03294208D0C6082E4205D1D2085E
:4060C000410711430C009A463100620FC900E50011433D4C79E50600164300D175E5AE1AB0464545BF410E1A7F42F61B370200D4F4E5551BAA42B641411A7642891B9A46F1
:4061000063E50100150064465FE5002200257BE5002B3BD00300134315D0ED084B072B438025C9082D03294207D0C4082C4204D141070B002100D2081343C9005A0F114322
:40614000DD00214C41E5204C3FE5002054E700260025D1E534000F00203CE7403C00202E2BD04027BE1BB1400D43691E8D4100212C43BCE6802100260903134C0025BBE579
:406180000D43691E8D410021EDB269E7010015000D4C1AE50100150017E51C000F00203CE7403C00202B0CD04027FB1A99400D43691E8D410021254352E70021D4E71D00E4
:4061C00092E50021F3E7C046FF070000FFFF7FFFF0B556464D4644465F46F0B41D000E034C00CB0F87B0070092468146360B640D98466AD06D4B9C4235D08022430F12045E
:406200001343F6001E43C3009946694B00279C460023644402932B0368001B0BED0F51469B46400D009500D178E0604B98426CD05B46DA004B0F802109040B4313439B46EE
:406240005346D9005A4B9C46002360444246201A6A40924601901F430F2F00D9B0E05548BF00C0598746374300D088E0002399460233082700260293CDE74346B3464946A6
:406280000093029B009A9246022B00D0BFE1002153460122002689461A40444B002136030C0D2405360B2643434C1B0526401E437600D207760816434846310007B03CBC94
:4062C00090469946A246AB46F0BD330003434FD0002E00D1BCE1300001F070FA03000B3B1C2B00DDADE11D220100D31A08393A008F408E40DA40B9461643304B00279C466E
:40630000002360444442029385E753465A4613432CD1002300219B46023397E70B4320D05B46002B00D19EE1584601F047FA03000B3B1C2B00DD8FE102005946083A9140F0
:406340008B461D21CB1A5146D9400B0059460B4351469B469140194B9C4660444042002374E7002300219B4601336FE703236DE70023994601330427002602934BE70323B1
:406380000C27029347E70122D51A382D00DCB0E153461A4000210023002689467EE700238026994600223603004B77E7FF07000001FCFFFFE47B0000FFFF0F80F3030000E3
:4063C0005E4500D972E100D16DE1019B4D46013B01930023340002935B461E020B0E1E430B020393330C994633041B0C494620000093FFF775F8009B3700434306004946D8
:4064000020009846FFF7F2F82C0C09040C43A04509D9E419731EA74200D95CE1A04500D859E1023EE4194346E41A49462000FFF757F80300009A80465343494620009B465E
:40644000FFF7D4F82A040904120C0A4393450DD94346D219013B974200D93AE1934500D837E102235B429C46D219E0445B46D21A4346360433439B460399180C0B0C1D0063
:40648000059309045B46090C0C001B041B0C4443049159436B4368431B190D0CEB189C4203D980246402A44660441C0C09041B04090C20185D18824200D2DEE000D1D7E08A
:4064C000161A029B9C465D1BAC459B415B42F61AB74200D106E149463000FFF701F8009B04004343494630009846FFF77FF82E0C09040E43B04509D9F619631EB74200D99C
:40650000F3E0B04500D8F0E0023CF6194346F31A494618000293FEF7E3FF009B06004343494602989846FFF761F82D0409042D0C0D43A84509D9ED19731EAF4200D9D6E0CB
:40654000A84500D8D3E0023EED192404210043463143049E059A3000ED1A0B040C0C1B0C58436643534354439A19030C9B189E4203D980225202944664441A0C00041B04EE
:40658000000C14191B18A54250D34DD001231943964A019B94466344002B00DCF3E64A0709D00F220A40042A05D00A1D8A42894149428B4411005A46D20108D55A468C4B54
:4065C0001A4093468022D2009446019B6344894A934200DD5BE65A46C908500708435602514601225B058146360B5B0D0A4055E680231B031E4211D05A461A420ED15E4616
:406600001E433603360B2A0089467B4B46E6032B00D1E1E0012BBBD11A40BBE61E433603360B4246744B39E6002BB1D07D194A1EAF4252D91100A542A8D1039A9A42A5D1BA
:40664000A6E703003E00283B9E400023994654E601F0B4F8203041E603005246283B9A400021934677E6504601F0A8F820305EE6029B0026AB4200D323E7039E0299B4460E
:4066800061448846B045B6415B467642F619B218013B0291974213D290424FD800D18EE0161A9B460DE7894500D28EE674084B46F60735005B081D434B46DB0702938BE6F0
:4066C0009742EDD10399029CA142E5D93E1A9B46F7E69846CAE61E00A5E6AC423ED874D0110053E70121494252E71C000EE71E002BE71F2D3CDC20230A0058465B1B984084
:40670000EA4099400243481E81415E461143EE404B0709D00F230B40042B05D00B00191D99429B415B42F61833023CD55346012200211A40002601238946AFE502235B4288
:406740009C46039CE344A446029B63449846A045B6417642F6190293B218B1E603988A1E41008142B6417642F619AD19039161E71F225242D31A5A46DA401300202D29D050
:4067800040225846551BA8400143481E814107200B4318400026002809D00F2200261A401900042ABBD10B0070077602360BDB0803439946012253461A4000236EE5029933
:4067C0008D42BBD89B4600267BE603989842C5D3110032E70020D7E780265B4636031E433603360B009A8946034B57E5FF030000FFFFFFFEFE070000FF070000F0B55F461A
:4068000056464D464446F0B41F035C00DB0F9A46194B0E034D00C90F8046360B6D0D8B4691463F0B640D9D4219D0134B9C421BD00123A54206D018003CBC90469946A246B8
:40684000AB46F0BDBE42F6D1C845F4D1D34510D0002DF0D1304303005A1E9341EBE7310001230143E7D1E0E73A430123002AE2D1DEE70023DFE7C046FF070000F0B55F46CD
:40688000444656464D46F0B41F033C0B2C4F0E034D00A3465C008446360B6D0DC90F9046640DDB0FBD422BD0254FBC422ED0002D0ED130430700814678427841002C17D128
:4068C0005F463A4314D14B460020002B0AD006E0002C02D15846024301D099421AD00123484218433CBC90469946A246AB46F0BD0028F2D058425841012240421043F1E754
:4069000037000743D0D002204042EBE75F461743CDD0F8E7A542E2DC05DB5E45DFD808D000205E45DED248424841012340421843D8E7C445D3D80020C445F4D3D2E7C046E5
:40694000FF070000F0B55F464D4644465646F0B41C03240BA4462F4C0F034D005E00C90F80463F0B6D0D8B469146760DDB0FA54220D0284CA64222D0002D12D1384344424D
:406980004441002E20D0002C0DD05C42634101245B421C4320003CBC90469946A246AB46F0BD002E17D05B4519D05B465C4201231C43EFE7390002240143EBD1D9E7614679
:4069C00002241143E6D1D7E761460A43DBD100240028DFD0E9E761460A43E4D1E5E7B54203DD01225C421443D4E7B542CDDB6745DBD809D000246745CCD259464C4261410A
:406A0000012449420C43C5E7C845CED80024C845F3D3BFE7FF070000F0B55F4656464D464446F0B40D0399464E002B0B87B00700924680469B46760DCC0F002E69D06D4B01
:406A40009E4235D05B468022DD001204430F13432B439B46C3009846674B00279C460023664401934A4615035000D20F53462D0B400D914600D176E05E4A90426CD08022FA
:406A80005B0F120413435C4AED0094461D4353460022DB00604449463618701C6140029017430F2F00D9AFE05448BF00C759BF465B461F4300D088E000239B46984602338B
:406AC00008270193CEE74946022A6AD0032A00D109E2012A00D0BBE111400022002300259046CCB200212D030A0D12052D0B1543434A1B0515401D436D00E4076D082543F4
:406B00004046290007B03CBC90469946A246AB46F0BD034352D05B46002B00D18AE1584600F04CFE03000B3B1C2B00DD7BE11D22D31A3A0001005D46DA4008398D40130066
:406B40008F402B439B46B8462E4B00279C46002360444642019385E752462A432CD100250023022297E752462A4321D0002D00D154E1280000F022FE03000B3B1C2B00DD6E
:406B800046E11D21CB1A51460200D9405346083A954093400D431B4A944660444042002279E7012400220C40124B0025904699E70025002301226EE703226CE700239B4678
:406BC00098460133042701934CE703230C27019348E700238025984600242D03054B81E75D464346019A6FE75D4643462100019A6AE7C046FF07000001FCFFFF247C0000C6
:406C0000FFFF0F80F30300004246120C91461A0C9446424617044A461B041B0C5A43604690464A4642431000039262461C003F0C7A437C4342440192220C9246019A52442D
:406C4000904506D98246802040028046C24450460390100C049048462404240C1204121905922A0C2D042D0C68432C00824648467C4350438146200C8046574357444744BB
:406C8000BA4503D9802040028046C144380C3F04B84648442404240C01900498A044404404905846000C814658460404200C8246070048465F434C4643436046604364466D
:406CC000834650464443380C8446E4186444A34203D980235B029C46E34448463F04230C3F0C2404E419574668436F4384464D46504655434243380C814662444A445B44DA
:406D0000944503D9802040028446654403983F04834604983F0C8446E344C345804140428246100484460198674484466744A344BC46A345A4419946D44464428742BF4104
:406D4000D4458041E144A04699459B417F424042C8440743120CBA18A045A4415F423B0064422343D71843467D19DB0D6D021D435B465A02059B1A43531E9A415B46DB0DA5
:406D80001A4343465B021343EA0107D501225C0813402343EA07029E13436D08574AB218002A4BDD580709D00F201840042805D0181D98429B415B42ED180300E80104D508
:406DC0004F4A15408022D200B2184E48824200DDE7E60124DB08680718436D02530580462D0B5B0D0C407DE6802259461203114208D0154206D115432D0398462D0B4C46D6
:406E0000414B6FE65D4615432D032D0B3E4B69E603005546283B9D400023BCE6504600F0CDFC2030A8E60300283B9F400023BB46984689E600F0C2FC203073E60124A61A74
:406E4000382E07DD00220C4000230025904649E6029EA3E71F2E20DC20222C001800921BF040944093400443581E83411C43F540630709D00F232340042B05D023001C1D43
:406E80009C4292415242AD182B021FD5012400220C4001230025904624E61F202C004042821AD440202E1CD04022961BB5402B43581E83410720234318400025002809D059
:406EC0000F2200251A401C00042AD8D1230068076D022D0B0124DB08034398460C40002300E60025E3E780220124120315432D0398462D0B0C40044BF4E5C046FF03000050
:406F0000FFFFFFFEFE070000FF070000F0B557464E464546E0B40E001100F20F9246C500420F180337037400400A4E0F7F0A3043CF4E17435A00640D520DDB0FC900B24294
:406F400000D1E5E001267340A61AB446534500D1AFE0002E00DC0DE1002A3AD103000B4300D0E4E06B0709D00F232B40042B05D02B1DAB42AD416D427F191D003B0200D459
:406F800088E0BB4B01349C4200D110E13A00B94B51461A4001235007ED08520264050543120B640D0B400021280012030D0D120B64052D0515436208AF4CDB072C4014437F
:406FC000640064081C4321001CBC90469946A246F0BDA74B9C42C5D080231B0418436346382B00DDFDE01F2B00DD30E1624620239B1A02009A40664690460A009940F2408C
:4070000046464B1E99413243114363460200DA40691A8D429B410D00BA1A5B42D71A3B0235D57A02530A98464346002B00D1C4E0404600F0C3FB0300083B1F2B00DDC5E0E9
:4070400020222900D21A4746D1409F400A009D403A439C4200DDC0E01C1B631C1F2B00DDE4E0202114002800C91AD8408C408D400443DA40681E854117002543002471E723
:40708000424663461A4300D14CE2674645466B0700D069E7012351467807ED08FA080B40054373498C4238D012036405120B640D79E7002E00DC9AE0002A47D06C4A944266
:4070C00000D14FE78022120410436246382A00DC08E10143481E81410022C9B24919D219A942BF410D007F42BF183A0200D442E15F4A0134944200D14EE101205D4A6908A9
:407100003A4028400843D507054357089A4629E706000E4300D017E714E72900114300D1F9E1802109030A431203120B3BE701235B429846C4446346002B72D1691A8D4209
:407140009B413F1A5B42FF1A0D0068E702000A4300D107E7012252429046C4446246002A00D0E6E06918A942B6413F187642F7190D00BAE7002E00D080E0621C5205520DFB
:40718000012A00DCF9E06A1A91464D45B6413A1A7642921B9046120200D499E04D1BA9428941C71B49427A1A90469A463CE752460123002513400022F5E6280000F0FEFAE3
:4071C00020300300083B1F2B00DC39E72A002838824000259C4200DC3EE7264FE41A1740C0E60143481E81410022C9B210E7002E00D0F1E0621C94465205520D012A00DC0F
:40720000A0E01B4A944500D1C5E06918A94292413F185242D2194908D5070D4357086446A0E6134B9C4200D0D9E69BE611001F3CE1400C00202B00D180E04021CB1A9A4078
