:400000000040002011000000550200005502000010B500F0C7FE00F0F5F900F023F9000070B572B61C4A1D4B1D491A6002231D4A1D4D13601D4A182011601D4A00241360CB
:4000400010221C4B1A6080221B4B92011A6012232B6000F039FE8022184B52011A60184A184B19491A604022184B0D201C60184B1A6000F05DFD0D2000F086FD154B200049
:400080001C6000F097FE112303222B60124B1A60124B1D321A6070BD99EE000000030240B10D00000003044030001040080304401803044000060440080604400003014052
:4000C00040FF008000000140410E000028000340040101400C02224030003040000E3F40000000000000000000000000000000000000000000000000000000000000000063
:4001000010B5064C2378002B07D1054B002B02D0044800E000BF0123237010BD6001002000000000B0140000084B10B5002B03D00749084800E000BF07480368002B00D1FE
:4001400010BD064B002BFBD09847F9E70000000064010020B0140000B80000200000000010B500F0BDFE002802D14022024B1A6000F09CFBFEE7C046B0000020F0B51700F9
:400180008022C1B005000E0052000021684601F082F900242C552000390001F041F96A46735C1355802301345B009C42F2D1002280241300FF2664006946E85CC95C821894
:4001C00052183240A9180F78EF5401330870A342F2D141B0F0BDF7B58B18002214000193019B994215D0FF23FF2501341C4006193378D2182A4087183D783570FF253B7074
:400200003678F3182B40C65C0B7873400B700131E6E7F7BDF0B515008022C1B004000E005200002168461F0001F035F9002C0DD0002D0BD03A0029006846FFF79FFF684672
:4002400032002100FFF7C7FF002001E00120404241B0F0BD10B501F0E9F803680C2B00D1FEE7FEE7F8B500250F49104B01394A1C14D000221F685C689E68A018B24203D05E
:40028000B858A0500432F8E70200DE68141AA64201D020C2FAE710330139E8E701F0CCF8FFF75EFFFEE7C04601000000FC140000002370B50B480C4C0C4D9A002100032BB2
:4002C00000D8A958013381502C2BF6D1FFF7A8FE074B1A68002A00D11A608022054B92051A6070BD000000205502000000000000B000002008ED00E0004770B506000D0052
:400300001400002802D0002000F05CFC00207519002C05D0013C2B191B78C018C0B2F7E770BDFF23020070B59A43C0B01300541C6A46FF34D51A1E78EE540133A342FAD188
:40034000C3B2D45C8C4205D0000AD15480B2110000F042FB40B070BD013810B50B2830D80902494200F0C2FF06080A0C0E10141216191B20174B13E0174B16E0174B0AE02E
:40038000174B12E0174B0BE0174B09E0174B02E0174B00E0174BC91817E0174B05E0174BC9180878C0B214E0154BC9180A7848788C780002230418430300C8781343000677
:4003C00006E0002000F0FEFB00210B7848780002184310BDC0FF0100C1FF0100C5FF0100C9FF0100D0FF0100D1FF0100D6FF0100D2FF0100D4FF0100D8FF0100DCFF0100A0
:40040000E0FF01000C4B10B51A68102313400B4A00D113601368802B0DD10024022021001460FFF799FFA04205D021000220FFF793FFFFF761FF10BD54000340B0000020A6
:40044000F8B5010004000320FFF786FF210006000420FFF781FF210007000620FFF77CFF0025012828D021000320FFF775FF01363602F7192E0001300002B84209D2037888
:400480005A1ED2B2FD2A00D80126ED18EDB20130F3E721000120FFF75FFF6D42EBB20625834209D1002E07D0044B24026042C0180121FFF736FF00252800F8BDD1FF0100AB
:4004C000F0B5C14CA54400F023FD62B6002700970197962103AC46ADFF2322004900280000F01EFD0028F4D12188062900D890E02A780423012A5AD16E88F21D8A4200D9F4
:4005000089E0962149008A4200D984E0AA199279172A4CD1F3189BB2002B08D0DCAAAB49D21852181278013B801880B2F3E7AB195A7940421B79120280B21A43082382424B
:4005400035D16AE0342B00D0D1E0009B012B60D1032E5ED180220021520091A8802700F09AFF7F00182191ABD819FF3102ABF21EC91800F087FF0423F619FF33B6B29E429C
:4005800000D01BE116228B21FF3202AB9B18490002AA521810781B78000218438C4B0700984200D824E1FF3BFF3B00930933002546A8012143702B0AC370002302AA0632F4
:4005C0000170291D1580857089B2002909D0DCAC7E4E6418A419247801391B199BB289B2F3E7DCA97B4C49195B420C199BB22370794C1B0A0C192370784B0735C918172378
:400600000B70A9B27F3300F0BCFC62E7009B012B45D00423CBE70323C9E76B782C79180031380A282ED96E4A1568002D26D0009A012A25D106AC02AA13725681002147AE91
:400640000C222000059600F026FFA660210004A8A8472623A588FF339D4202D9A368B34207D0A268002A01D1002D04D12368DBB29EE70E239BE70E23150099E7052397E7BD
:40068000052394E700F03CFEC2FF1600CFFF5EFF3900CFFF3E0051005EFF70008900002EB7D13000FFF7CCFE434243412B713300009D7DE7009B012BABD1012EA9D1002CE8
:4006C000A7D1484B1B681B685A0CD2B2002A02D1DB03DB0D01E080239B002B711B0A6B71FF23AB71FE3BEB710023042560E7009B012B8ED1022E8CD934E7009B012B88D124
:400700000027E6E6009B012B83D12C33F519FF339D4200DD7FE791ABD819320047A900F0B1FE0023AFB21D0042E7731E1F2B0DD800232C48B34207DAEA18011D14795A5CA2
:4007400062405A540133F5E7254B1E7106AB1900254A002711CA11C147AA03CB03C20123082500933B0023E7009B012B00D050E7032E00D04DE716228B21FF3202AB9B18E8
:40078000490002AA521816781B7836021E43104B9E4265D9F63BFF3B09E70020FFF750FE002802D18022114B1A6000250C4B1D7100F0B2FB00F008FA0423F9E6012300278B
:4007C000009302333D00F3E68CFCFFFFA7FDFFFFFF010000ACFDFFFFADFDFFFFAEFDFFFF7C010020BC000020B4140000B00000202B4D2B6819680B0AC9B29BB2002901D087
:4008000001339BB26402381984B29C421ED3019B002B0BD180221900520006A800F03BFE06A9204800F0D8F8012301931E4B1B79002B05D080212A1D490091A8FFF7EAFC22
:4008400091A9200000F0C8F8002804D00123002700930933B6E70123070000930300B1E7802261028919090252000020FFF745FD0500002C0ED10B4B9E420BD1210005209E
:40088000FFF76AFD21002D1A0620FFF765FDEDB22D1AEDB26D4246AB1D710023012587E6BC000020FF0100007C01002070B50020FFF7C6FD431E98410624134D40422B683C
:4008C00004401A68C021C03A0020FFF716FD6B6A1B78181AC0B2834203D12B681B68002B02D1002000F06EF9084B19681A00402901D0002C03D000231360FFF7E1FD8022CB
:400900001A6000F061F970BDBC000020B000002082B06A460B4B0C4900930C4B01930C4B1A600C4A1160C0461A68120F0F2A04D01A680020120F0A2A01D01868C0B202B055
:400940007047C046B6E9000016000080840100200800104004001040094B0A4A0A491A600A4A1160C0461A68120F0F2A04D01A680020120F0A2A01D01868C0B27047C046CD
:4009800008001040B6E80000150000800400104082B06A460B4B0C4900930C4B01930C4B1A600C4A1160C0461A68120F0F2A04D01A680020120F0A2A01D01868C0B202B093
:4009C0007047C046B6EA000017000080840100200800104004001040F0B50024304BC7B0029406000394984255D8A14253D0802206A8520000F046FD2A4B2B4D0493FF233C
:400A00002A492B4A04AF7B602F600A60C0462A680191120F0F2A03D02A68120F0A2A01D02C681C400294029B002B36D100F069FA0400FFF76DFF0390039B002B02D1FFF705
:400A40008BFF0290029B002B16D11A4A1A490492049A0198360416430496134A2F600160C0462968090F0F2903D01168090F0A2901D01368DBB20293039B002B07D1FFF71A
:400A800087FF0390039B002B01D0039B0293200000F03BFA01E004230293029847B0F0BDFF010000B6D70000080010400400104004000080B6D800000500008070B5050036
:400AC00000F01FFA0400102D04D803210E4A13688B4307E0202D07D803210B4A13688B4302390B4313600AE0302D05D80321064A13688B430139F4E7002000F063F82000B9
:400B000000F003FA70BDC04630001040024A034B11680B401360704700002240FFFFFFBF024B18684000C00F7047C046000022401B2800D901BE034B8000C31818681960F7
:400B40007047C04640000020F8B504000E00032900D901BE1B2C00D901BE032725003D40BD400635AF40AE4000F0CBF9A408054BA400E4182368BB431E43266000F0C5F9A7
:400B8000F8BDC04600E400E01F2318401E3B8340014A13607047C04600E100E01F2318401E3B8340014A13607047C04680E100E01F2318401E3B8340014A13607047C04621
:400BC00080E200E001BE7047034A044913689BB20B4313607047C0460CED00E00400FA0570B5802504002D02064BAC4205D9586800F07EF9044BE418F6E79868604300F085
:400C000077F970BDE40000200080FFFF37B500F0C3F8002842D000F074F91C21204B214A1B6812689B008A400B40920F1833D34080251D491D4A04000868ED0110401C4A1E
:400C40005A435219D20B013A0243192B01D8194B0EE0194D19481818EB18A0251A3B00781B786D031B182A43FF2B00D9FF239B051A43134D0A602B6830200193FFF71EFFFB
:400C80008021104AC905136814200B431360FFF7A7FF019B20002B6000F037F937BDC046080F0340280003400800224000F800C040420F000000D43FBC1400004DF3FF0F55
:400CC0003000104000002240F7B50500183D0400182D46D80126244B3700EB409F4340D100F00FF90190FFF71BFF0097002802D0FFF70CFF009607271C4E1D4A33681D49F9
:400D0000BB4333601C4BE3181B78DBB213601B4A1368BB4313601A4B0A68E31818787F239A43034013430B60322000F0E1F8182C0ED033681C3CA408BB433C401C433460AE
:400D4000322000F0D5F83368AD08BB431D433560009B012B01D1FFF759FF019800F0D5F800E001BEF7BDC04611111101080F03400C0F0340180F03404DF3FF0F100F034085
:400D800034F3FF0F10B5034B1B7B584300F0B0F810BDC046E4000020014B1868C00F704700002240014A024B1A6070476588EDAC3800034070B5154D04002B68144E9B0FA3
:400DC0009B07984215D0032233687C20934333602B689B0F00D09030FFF7D4FF00F091F82B68A40F9B009B08A4071C432C6000F08CF803223368934319002B689A0F5342B0
:400E0000534101330B43336070BDC0460C0222401402224010B5040000F073F80549064A0B681440054A134023430B600B6800F06CF810BD1002224004040400FBFBFBFFEE
:400E4000042270B5224C2368134213D021490B6813420CD0204B5D6908681540A84308605969914359619B68002B00D098470420FFF7D0FF80232268DB001A4215D01549E2
:400E80000A681A420DD0144A556908682B40984308605169114B0B405361D368002B00D098478020C000FFF7B5FF80232268DB021A420CD0074A12681A4204D0064B1B6907
:400EC000002B00D098478020C002FFF7A3FF70BD10022240F80000209C010020FFFBFFFF024B1868C006C00F7047C046040604400230800803D001300238FCD1C046C04672
:400F00007047EFF3108072B6704780F31088704710B500F055F810BD10B500F05FF810BDF8B504000F0016000120002C28D0002926D00A255D4300F07FF8002810D000F0D7
:400F40007BF80500AB20FFF71DFF00F075F88542F5D13900AF4200D929003180651807E00120013DFFF73CFE002DE4D1102007E0AC4204D000F048F820700134F8E70020B3
:400F8000F8BD70B501230C001500002805D0002903D000F095F800232C80180070BD00008021064A10B5136809060B4313600820FFF7EAFD00F006F910BDC046000025405B
:400FC00010B5054C2378002B03D100F085F801232370FFF7E5FF10BDB401002010B50820FFF7DCFD00F000F9054A082013685B005B0813600022034B1A60FFF7D9FD10BD56
:4010000000002540880F2540084B094A196813680020994208D013680133412B00D103000449C85C1360C0B27047C046C8010020C401002011020020044B1868044B1A6837
:401040001B68904200D24130C01A7047C8010020C4010020134B144A30B515681C681900A54208D1114B1C681F232340082B02D00F4B186015E013680133402B00D100239F
:401080000C68A342FCD002210A4CC0B221600A4CE0541360094B1A680A4202D11A680A431A6030BDC0010020CC0100200802254040022540800F2540D0010020880F2540B2
:4010C00070B504004518AC4204D02078FFF7C2FF0134F8E770BD000070B50024072104251E4A1F4B08201A601E4B1F4A1C601F4B1A601F4B1F4A13601F4A11601F4A063910
:4011000014601F4A11601F4A13601F4B1C601F4B1D60FFF743FD03210820FFF715FD1C490820FFF705FD1B4B1C601B4B1C601B4B1C601B4B1C601B4B1D601B4B1C601A68DA
:401140001A4B1A801A4B1C601A4B1C601A4B1C701A4B1C601A4B1C6070BDC0460B000002000025404000254001000A00480025400700008000032540040325401003254026
:401180004400254000022540040225405000254011120000880E2540C80E2540480F2540080F2540C80F2540880F2540BC010020C8010020C401002010020020CC0100206C
:4011C000C0010020F021054A13688B4360390B431360034B1A88034B1A60704700030240BC010020880F2540F021064A13688B431360054B1A68E423DB001340034A13807A
:401200007047C04600030240880F2540BC010020254B70B51B68002B00D09847234B1B685B071CD520241F2021490B680133412B00D100231F4A15681F4AAB4203D113681E
:401240001E4B1C7004E012681D4DD2B2EA540B601C4B1B680342E8D104221B4B1A601B4B1B689B071FD51F20194C1A4A21681368994210D013680133402B00D100231649E3
:40128000164DC95CC9B229601360154B1B680340082BEBD104E00221124A13688B4313600222114B1A6070BDB8010020CC0F2540C8010020C4010020400325401002002013
:4012C0001102002008032540C00F25408C0F2540CC010020C0010020D00100204002254008022540880F2540800F254002B4714649084900095C49008E4402BC7047C04650
:4013000003B47146490840004900095E49008E4403BC7047002243088B4274D303098B425FD3030A8B4244D3030B8B4228D3030C8B420DD3FF22090212BA030C8B4202D3B5
:401340001212090265D0030B8B4219D300E0090AC30B8B4201D3CB03C01A5241830B8B4201D38B03C01A5241430B8B4201D34B03C01A5241030B8B4201D30B03C01A5241A7
:40138000C30A8B4201D3CB02C01A5241830A8B4201D38B02C01A5241430A8B4201D34B02C01A5241030A8B4201D30B02C01A5241CDD2C3098B4201D3CB01C01A52418309BC
:4013C0008B4201D38B01C01A524143098B4201D34B01C01A524103098B4201D30B01C01A5241C3088B4201D3CB00C01A524183088B4201D38B00C01A524143088B4201D3D3
:401400004B00C01A5241411A00D20146524110467047FFE701B5002000F006F802BDC0460029F7D076E770477047C046014B18687047C0465C0100200E4B70B500251E00E9
:401440000D4CE41AA410A54204D0AB00F35898470135F8E700F040F8084B00251E00084CE41AA410A54204D0AB00F35898470135F8E770BDE4140000E4140000E41400003E
:40148000EC140000002310B59A4203D0CC5CC4540133F9E710BD03008218934202D019700133FAE770470000001600007700000000000000B5116A25003C0101EEDBC9B970
:4014C000AA9B8E82766B60564D443B332C241D17100A044300000000F8B5C046F8BC08BC9E46704729010000B1020000F8B5C046F8BC08BC9E46704701010000101500008C
:40150000B8000020A8000000F80000000000000000000000A8140000415352363530312D3230313831303233415352363530312D3230313831303233AC14000001000000D6
:401540000000E02EC05D00001800000000366E01040404000000000000000000000000000000000000000000000000000000000000000000D3140000000000000000000090
:4015800000000000000000000000000000000000000000000000000000000000000000000000000000000000000000000000000000000000FC00002000000000000000000F
:4015C00000000000000000000000000000000000000000000000000000000000000000000000000000000000000000000000000000000000000000000000000000000000EB
:40160000004000201116000011FA000011FA000010B5034B83F308880FF032FC0EF01EFA00400020F8B572B6EE22414B40271A60404A414B01241A60404A414B41491A6030
:401640008322414B414D1A60414A424B00261A60414B424A1F60424B1C6012231360414A1160022240490A6040490A608D21404A11604049404A11608021404A4901116018
:4016800005213F4A11603F4A7B311160C0213E4A0904116003213D4A11602B600FF0D8FB18200FF093FAB822B021394B52011A60384B394A09011A60384A0D201160F02189
:4016C000374A09011A60374A1160374A37491A60374A1660374A1A602022374B1A60374B23321A60364B023A1A60364B12191A60354B1F600FF09EF90D200FF0C7F9802079
:40170000324BC0051E600FF0DDFB112303222B602F4B20001A6080222E4B12061A6020222D4B1C602D4B1A600EF064F9F8BDC0460000024099EE000000030240FF0F000013
:4017400000040240B16D0000000004403000104024064C00080004400C0004400003044018020440080304400C03044018030440000404408E0D2C00080404400C040440D6
:40178000180404400005044008050440080704400C0301400000014043FF00800403014041FF00800803014042FF0080C11101000003014040FF00802800034048010140A9
:4017C0000801014004010140000101400C0222403000304000003A4000033A40000E3F4010B5064C2378002B07D1054B002B02D0044800E000BF0123237010BD8802002068
:401800000000000078880100084B10B5002B03D00749084800E000BF07480368002B00D110BD064B002BFBD09847F9E7000000008C02002078880100B80000200000000042
:4018400089004018072110B580248843011F64040C6004390B60030014490C3B19601449043B19601349043B19601349043B19601249043B1960043B1A60114A043B1A6052
:40188000104A043B1A60104A043B1A600F4A043B1A600F4A043B1A600E4A043B1A600E4A043B1A600D4B4038036010BD9D510000121212120303030302020202010101016E
:4018C0001111111110101010090909090808080807070707060606060505050504040404F8B503F095FA056903F092FA4469A4002C196D4600260327AC420BD93E4203D1ED
:401900002900094810F0F2F802CD084810F0EEF80136F1E7064810F0E9F8064B064A5D21064815F0EDFDC046888A0100928A0100C28A01007B8F01008888010095880100E7
:401940006846704710B503F0A1F803F0F3FC03F0ABF810BD13B501F06FFC0023104C236063600133237200F00DFD042301AA69460C48019300F036FC002802D1009802F0B0
:4019800075F801F009FC08480EF0F6FA01F038FB03CC04F03DFB0021044803F0F7F9FAE7A4020020C68801001D3D0000102700007FB562B601F0A4F902F072F90FF0B4F9AD
:4019C00014480FF0C7F914490E200FF029F80FF09FF9124900200FF0DFF910F0A5FB10F01BFB012304930E4B0022039380239B00029300230B48009201930B4920230C3074
:401A000003F0AFF9002801D101F07EF9002007B000BDC046C05D000035FB00004519000055190000A4020020CF880100F0B50300312600200A4D013989B2A9420FD01A7891
:401A40005040082247B24400E0B2002F01DA7440E0B2013AD2B2002AF4D10133EBE7F0BDFFFF000010B5041E07D08068002801D000F0CAFF200000F0C7FF10BD07B5130064
:401A800001900A00062001A90FF006FE0EBD70B50400C57808000E0016F093F8854218D1A088401900F0AAFF011EA06013D0E389A28908331800FFF7E1FF00280DD130001E
:401AC00016F07FF831000200A06815F075FD002805D00B2002E00C2000E00520404270BD70B50400C078013000F088FF051E31D0E2780021013215F077FDE089E27829008D
:401B00000830FFF7BBFFA088013000F077FF061E03D1280000F078FF1CE0A2880021013215F062FDE089E3780830A288C0183100FFF7A4FF01F0B0FA330001002A00074889
:401B40000FF0FDFF280000F05FFF300000F05CFF0B2000E00C20404270BDC046D888010010B5074B5A78002A08D101219A70597080230449DB00044800F0DEFC10BDC04697
:401B8000B8020020C51F0000E4880100F0B58BB0079104920593039016F013F8C3B206936B4603221F8AC3B2FB189BB202930B3393439BB204001800019300F01FFF051E77
:401BC0005CD0FF2626402C00019A0021083415F00BFD32000399200015F0FDFC6B46A4191A8A0799200015F0F6FCA01B0299FFF71DFF49232B70A5336B706B461B7E214E6D
:401C0000EB703B0A6B716B461B7DA870AB71059B2F711B0AEB71B388019A1B0B04339B009B5B9A420CD29B1A174A934204DCF378012B01D8FFF794FFB488002C02D004E08A
:401C4000FFF78EFF1C277F4213E0019B2A0009A9062009940FF0FCFC071E0AD1019B019A1C19A4B2B480240B0434A400335B9B1A3353280000F0C8FE380001E00C20404249
:401C80000BB0F0BDB8020020870200001FB56B460130DA1D11700390012303A906200FF0D7FC05B000BD0000F0B587B0059280220E000B039BB252011D1D01939B189BB2BF
:401CC0000490ADB20293102000F098FE041E78D01022002115F088FC082221002800FFF7CDFE002845D12378492B0CD0FF2B06D16378FF2B03D12000FFF7B4FE55E0FF230A
:401D00002371FF236371637921791A0213000B435A1E2D4992B28A4203D8E278511E090612D52000FFF79EFE341D284BA4001C19A3780835ADB2CC2B32D144210198FFF79A
:401D4000A5FF4423A3702BE09A1893B21A0003210B328A4392B203926278EE2A0DD1A381E58105992000049B9847002829D00B3010D02000FFF776FE21E0144B371DBF0053
:401D8000DF19BB78CC2B05D144210198FFF77EFF4423BB702000FFF765FE039BED18ADB22B00029A08339A428DDC029A0823954201D2551BABB20436044AB600B3520020C5
:401DC00000E0200007B0F0BDFF010000B802002070B50D4B05009A7C1C00EE2A06D0020000210A48FFF760FF00280BD1A37DEE2B01D1002006E02A0001210448FFF754FF43
:401E00000028F6D070BDC046B80200208F1A0000F0B585B00190002901D1C78951E0012966D1019B0822DF88002102A815F0DCFB082202A93800FFF721FE041E5AD102ABC6
:401E40001B78492B01D0002458E002AB5B78EE2BF9D1019A02ABDB78D0789842F3D100F0CDFD051E48D002ABD87800F0C7FD061E03D1280000F0C8FD3EE0380002ABDA787A
:401E800029000830FFF7FAFD02ABDA78019B3100D8890830FFF7F2FD02ABDA783100280015F08AFB002806D0280000F0ADFD300000F0AAFD22E0280000F0A6FD300000F044
:401EC000A3FD00213800FFF7E1FE041E16D1380B0C4B051DAD005D19AB78CC2BB3D100034421FFF7D3FE041E08D14423AB7005E0162402E0052400E00C246442200005B02D
:401F0000F0BDC046B802002070B50400808900F075FD05000C20002D22D0E089A28908302900FFF7ABFD061E04D0280000F06CFD052015E0A1892800FFF778FDA378310001
:401F4000834206D1E388002B06D0E28901219A4202D02000FFF75CFF280000F055FD0B20404270BD73B500236A4600934B33137080220603B6B204005201310006200FF01A
:401F8000B9FB002802D00520404215E06B46EE256A465D7001A90423062001960FF058FB0028F0D1054B0434A4001A199570044AE252DA780132DA7076BDC046B802002005
:401FC000FC0F000070B52A4C0121200049420C3000F030FB00283AD1E378002B37D0A37CEE2B04D0A37D0125EE2B30D100E00500A2882B030433110BA3804E1C022E00D1CD
:402000000026331D9B00E3189B78442B18D1002231001848FFF748FE3000FFF7A3FF002815D1A088CC21000B0003FFF72FFECC230435AD006519AB70E378013BE37006E0E0
:40204000B3B2994202D00136F6B2D7E7A280200000230C30637000F06BFBA378002B03D02000083000F055FC002000F0DDFA70BDB802002079200000032373B5848905004E
:402080000B349C43A4B2200000F0B8FC061E24D0E88922003100FFF7F1FC002801D0052415E00F4D3200AB8801A90193062023000FF0CEFA0028F2D1A988611889B2A9800A
:4020C000090B043189004B5B1C1B4C530B243000644200F099FC200001E00C20404276BDB8020020012170B50F4D06000C354942280000F09FFA041E13D13000FFF768FE94
:40210000061E04D1280000F013FB023C09E02100FFF77EFE04003000FFF7A4FC280000F007FB200070BDC046B8020020F7B507000191160000284FD000294DD0002A4BDD7B
:4021400015F03FFD802847D880239B009E4243DC234843780090002B07D001218378494201338370083000F053FB0121009849420C3000F05FFA041E30D13800FFF728FEDC
:40218000051E1CD083889E4208D1C078AB6832001818019915F010FA00280CD0EB89320001993800FFF7F2FC041E04D101002800FFF72EFE04002800FFF754FC06E00300F9
:4021C000320001993800FFF7E1FC040000980C3000F0AEFA200001E016204042FEBDC046B8020020F7B505000191160000282ED000292CD0002A2AD01368002B27DD0121B0
:40220000164F49420C37380000F014FA041E22D12800FFF7DDFD0500380000F089FA002D17D0AA883368934205DA32602800FFF719FC1C3C0FE0AB68E9780198591815F054
:40224000CAF9AB8828003360FFF70CFC03E0162400E0022464422000FEBDC046B8020020F0B5160085B01D003B4C012A00DD5C6880273A497F012000039715F098FC0028A6
:4022800012D1042E65D1EC68200015F09AFC012302002100A868FFF749FF002859D000F0FBFE01002E4811E02E49200015F07FFC019000282AD1032E4BD1380000F09EFBB4
:4022C000041E06D100F0E8FE010027480FF037FC3FE03A00019915F087F903AA2100A868FFF780FF002806D000F0D6FE01001F480FF025FC06E000F0CFFE220001001C482E
:402300000FF01DFC200000F07FFB22E01949200015F04DFC00280BD1032E1AD1A868FFF7E1FE002815D000F0B7FE01001248CDE72000124915F03BFC041E0AD1104D020050
:4023400001002800FFF7B0FC220001212800FFF7ABFC05B0F0BDC046C48A0100EA880100EE88010004890100088901001E890100348901004489010048890100528C0100E3
:40238000E11A0000F0B5674C85B02178002901D00026C4E01822200015F026F920000C3000F038FB0500061E00D0B8E05E4800F02FFE02AB1D8023001033009301950023EB
:4023C00003AF2803042239000393FFF757FB3B78EEB24B2B20D17B78CC2B03D0EE2B01D0442B19D1009A3100937050480022FFF75BFC7B78EE2B14D1009A4D4B12889A429B
:4024000006D0019A02AB9E5413000133019308E0E3780133E37004E03000FFF7A3FD002861D1009B013504330093022DC7D104AA9446019B63441D0002AB093D5E1EB54233
:4024400017D0E3782F78002B0CD0380380B24421FFF71CFC002846D144230437BF00E719BB7004E03800FFF77DFD00283BD1013DE5E7E078002803D0E378022B05D117E04F
:40248000FFF770FD0028F7D02DE0A37CCC2B03D1A27DEE2A02D119E0442BF9D0A27DCC2A03D1EE2B1DD1012311E0442A19D1F8E70423CC210020A380FFF7E8FB061E10D127
:4024C000CC23A374E378013BE3700EE000231A0004339B00E15A80235B015B1A12039A18A280002601E0061E19D120000021083000F008FB002811D101232370A3880D4A93
:402500001B0B04339B00E35A934200D940E7E378012B00D93CE7FFF723FB00E00600300005B0F0BDB8020020CC000020091F0000FC0F000087020000F0B5012500260027E8
:40254000002489B09B08039102930100202304950096019707A8079402F003FC03002000A34252D03222FF32934246D027D8652B12D8642B41D2082B07D8072B3DD2052BB4
:402580003BD040D8022B3ED03BE0092B39D00B2040420B2B39D034E0CA2B08D8C82B30D2662B30D00C204042692B2ED029E096225200934221D024D8CB2B22D11DE0C82225
:4025C0009200934219D00DD8114A934203D8013A934216D311E00F4A934212D00E4A93420FD80AE00D4A934209D00AD90C4A934205D006D80B4A934203D3162004E00B2098
:4026000002E0012000E00E20404209B0F0BDC046BD020000BE020000C1020000E90300004F0400004C04000010B5002002F014FD10BD000010B5002866D04B1C04D1012293
:402640005242D317006807E004680800002102F087FE02000B00200001F06AFC2D4A0023904255D0031E53D03223FF3398424BD027D8652812D8642846D2082807D8072854
:4026800042D2052840D041D802283FD03AE0092838D00B235B420B283AD033E0CA2808D8C8282FD2662831D00C235B4269282FD028E096235B00984226D023D8CB2821D18F
:4026C00022E0C8239B0098421ED00DD8124B984203D8013B984215D316E0104B984211D00F4B98420ED80FE00E4B984208D009D90D4B984204D005D80C4B984204D201E0C8
:402700000B2304E0012302E0162300E00E235B42180010BD85030000BD020000BE020000C1020000E90300004F0400004C04000010B5002859D0006801F07AFC2D4A0300FD
:402740000020934255D0181E53D03222FF3293424BD027D8652B12D8642B46D2082B07D8072B42D2052B40D041D8022B3FD03AE0092B38D00B2040420B2B3AD033E0CA2B19
:4027800008D8C82B2FD2662B31D00C204042692B2FD028E096225200934226D023D8CB2B21D122E0C822920093421ED00DD8124A934203D8013A934215D316E00F4A934264
:4027C00011D00F4A93420ED80FE00E4A934208D009D90D4A934204D005D80C4A934204D201E00B2004E0012002E0162000E00E20404210BD85030000BD020000BE020000A3
:40280000C1020000E90300004F0400004C04000010B5002863D04B1C04D101225242D317006807E004680800002102F099FD02000B00200002F042F80023984253D032230F
:40284000FF3398424BD027D8652812D8642846D2082807D8072842D2052840D041D802283FD03AE0092838D00B235B420B283AD033E0CA2808D8C8282FD2662831D00C2347
:402880005B4269282FD028E096235B00984226D023D8CB2821D122E0C8239B0098421ED00DD8124B984203D8013B984215D316E00F4B984211D00F4B98420ED80FE00E4B6D
:4028C000984208D009D90D4B984204D005D80C4B984204D201E00B2304E0012302E0162300E00E235B42180010BDC046BD020000BE020000C1020000E90300004F0400000E
:402900004C04000010B5002802D0006801F0C2FF10BD10B5002802D0006801F0C5FF10BD10B5002858D0002956D0006802F00CFF03000020834253D03222FF3293424BD0AF
:4029400027D8652B12D8642B46D2082B07D8072B42D2052B40D041D8022B3FD03AE0092B38D00B2040420B2B3AD033E0CA2B08D8C82B2FD2662B31D00C204042692B2FD058
:4029800028E096225200934226D023D8CB2B21D122E0C822920093421ED00DD8114A934203D8013A934215D316E00F4A934211D00E4A93420ED80FE00D4A934208D009D941
:4029C0000C4A934204D005D80B4A934204D201E00B2004E0012002E0162000E00E20404210BDC046BD020000BE020000C1020000E90300004F0400004C04000010B50028B1
:402A000001D003F0F3F910BD10B5002801D003F0FFF910BD70B5061E5ED0282003F0E6F9051E5BD0304901F03FFA041E52D02800FFF7EAFF3223FF339C424DD027D8652CC4
:402A400012D8642C48D2082C07D8072C44D2052C42D045D8022C43D03AE0092C38D00B2040420B2C3ED033E0CA2C08D8C82C2FD2662C35D00C204042692C33D028E0962300
:402A80005B009C4228D023D8CB2C21D124E0C8239B009C4220D00DD8144B9C4203D8013B9C4215D318E0124B9C4211D0114B9C420ED811E0104B9C4208D009D90F4B9C425A
:402AC00004D005D80E4B9C4206D201E00B2008E0012006E0356005E0162002E00C2000E00E20404270BDC0469B890100BD020000BE020000C1020000E90300004F040000F4
:402B00004C04000070B506000C0000285FD0242003F06CF9051E5CD02200304901F094FE041E52D02800FFF76FFF3223FF339C424DD027D8652C12D8642C48D2082C07D825
:402B4000072C44D2052C42D045D8022C43D03AE0092C38D00B2040420B2C3ED033E0CA2C08D8C82C2FD2662C35D00C204042692C33D028E096235B009C4228D023D8CB2C83
:402B800021D124E0C8239B009C4220D00DD8144B9C4203D8013B9C4215D318E0114B9C4211D0114B9C420ED811E0104B9C4208D009D90F4B9C4204D005D80E4B9C4206D2BD
:402BC00001E00B2008E0012006E0356005E0162002E00C2000E00E20404270BD9B890100BD020000BE020000C1020000E90300004F0400004C040000F0B585B005000E007C
:402C000017000393002864D0002962D04C2003F0EDF8041E5FD0039B3200009331493B0002F07AFD061E52D02000FFF7EDFE3223FF339E424DD027D8652E12D8642E48D227
:402C4000082E07D8072E44D2052E42D045D8022E43D03AE0092E38D00B2040420B2E3ED033E0CA2E08D8C82E2FD2662E35D00C204042692E33D028E096235B009E4228D04B
:402C800023D8CB2E21D124E0C8239B009E4220D00DD8154B9E4203D8013B9E4215D318E0124B9E4211D0124B9E420ED811E0114B9E4208D009D9104B9E4204D005D80F4B6A
:402CC0009E4206D201E00B2008E0012006E02C6005E0162002E00C2000E00E20404205B0F0BDC0469B890100BD020000BE020000C1020000E90300004F0400004C0400007E
:402D000010B501F067FE10BD10B501F0A3FE10BDF0B5002497B0394B08940EAA23CB23C223CB23C203CB03C201F03EFC2100344801F01AFD334B344C344D1B68210028004B
:402D400007930EF0D3FE210031480EF0CFFE280021000EF0CBFE2F4B1D682E4B9D4244D02E00283E08A9300002F05EF8002801D0002308937468002C00D1274C079B592728
:402D8000B34200D00B3F2B002C331B780026072B00D81E00200014F014FF12280CD91322002109A814F020FC2B00283B5968122209A814F010FC09AC00230393089B04972C
:402DC00002932B00283B5B69302201932B004B331B78B600009302AB9B189B5922000A490E480EF083FE2D68B7E7074907480EF07DFE01F021FC002017B0F0BDA0890100CC
:402E0000DC0D0020D40D0020D4020020C7890100148A0100680C0020C0890100618A0100002110B501220800FFF772FF10BD0000F0B50023060085B0039301F0B5FB73697D
:402E400032699B00D31803A93000019302F006F8002808D17369039A05009C1A3369A4001C19032713E0022002F090FD01F0E4FB012017E03D4204D1220031000A480EF08A
:402E800035FE04CC310009480EF030FE0135019B074E9C42EED3310006480EF027FE01F0CBFB002005B0F0BD868A0100908A0100D4020020988A0100F7B51049060014F06C
:402EC00076FE07000E4B1C680193019B9C4213D02500283D002F05D06968300014F067FE002807D16A68074907480EF0FFFD2800FFF79EFF2468E8E70020FEBDC58A0100E5
:402F0000680C0020D4020020C98A0100F7B50F00019014001D00012A43DD5E682A49300014F045FE00280ED1032C06D12749A86814F03DFE0122002800D000223900019860
:402F4000FFF7E6FE3FE02249300014F030FE002809D1032C01D1A86802E001F059FF4068FFF7AAFF2FE0022C1BD11A49300014F01EFE041E15D1184D184E290030000EF000
:402F8000B5FD2200290016480EF0B0FD2200290014480EF0ABFD290030000EF0A7FD200011E00D4C104821000EF0A0FD21000F480EF09CFD21000E480EF098FD21000D48B6
:402FC0000EF094FD0020FEBDBC8D0100E78A0100EE8A0100678C0100D4020020F98A01002B8B01004E8B0100718B0100838B0100B38B0100E98B010010B5FFF787FF10BD65
:4030000010B50221014800F02DF810BDD8000020134B30B55A6C0123002A1ED00368002B15D08368002B12D0936C0F2B11D811009C001419A14204D004314D68A842F9D17C
:403040000AE0591C02339B009164985004E0162300E00C235B4200E00023180030BDC046D0020020F8B50B4B06005B6C0D000120002B0DD000240C27380060433018AC420D
:4030800005DAFFF7C5FF002802D10134F4E70020F8BDC046D0020020014804307047C046D0020020F7B5042668271D4B1B68334229D06B46DC1D002323700CF043FE194BB4
:4030C000C0B220701E600EF09BFF174B20781B681B185B78BB4303D10D2801D00A2804D106F00AF820780CF08BFD2378002BDCD00E4D012221002800FFF712FC280010309D
:40310000FFF700FCD1E70A4B1A6880239B001A4205D0084A054813600C30FFF7F3FBF7BDCC0F2540C00F25401C0200203C0300208C0F2540800F2540F8B507780600002F53
:4031400024D1134C390020000C30FFF7DBFC3078251D0001281839000C30FFF7D3FC307800012818FFF756FC3078000128180430FFF750FC21000123543140222000FFF762
:403180003BFD04480CF028FD0CF018FD0020F8BD3C030020A530000070B50025074C257500F096FCA0612000032314306577A577E5772377FFF7C0FF70BDC046BC03002057
:4031C000194B70B518680D23000A01305843182111F0CCFB1823441CA3429B410125134A5B4213700CF01AFD114B1B68DB0B2B401B18002BF6D10CF0FBFC002812D18025B5
:40320000A4B20C4E0CF012FD20000DF03DFD33682D022B4206D120000DF036FD336801202B4200D0002070BD08030140880100200802254008032540244B30B51D00002271
:4032400064352A70224DE0209D661D0078352A70204D4002DD67E8251C1D6D02E5671862D8661C0080201C4940010834E0671C0099610321883421601C008C3422701C00B3
:40328000164D903425601C00F02594346D0225601C00983420601C009C3421601C00A0341A75DA6122701A000D4CA43214601A00F824A832640214601A0059621867596799
:4032C000AC32B0331060196030BDC046E4030020918C01009C8C0100858C0100A78C0100B28C0100012213B500240192009200233A210A4800F0FDFB230022000194009404
:403300003321074800F0F5FB01940094230022003421044800F0EDFB13BDC046201F0020C81E0020D41E002010B5030003220121014800F0E7FB10BDD41E002005207047F1
:4033400037B5002406200CF07BFE14200AF048FF0D4D23002800012232210194009400F0C8FB28200AF03CFF012303223221280001930094230000F0BCFB14200AF030FFA6
:4033800020000CF05DFE37BDBC1E002010B5034800F0C0FB0128FAD010BDC046C81E002070B572B60A4C0021200000F0AFFB094DC021280000F078FC0021280000F074FC37
:4033C0000121200000F0A2FBFFF7E0FF62B670BD201F0020F81E0020F7B507000C0001920BF09EFD0F4D0021280000F08FFB0E4EB9B2300000F058FC019BE3180193019B46
:403400009C4205D02178300000F04EFC0134F6E70121280000F07AFB842F01D0FFF7B6FFF7BDC046201F0020F81E0020F8B5050017000C000BF074FD0F4E0021300000F0B8
:4034400065FBA9B20D4DE719280000F02DFC0021280000F029FCBC4206D00021280000F023FC20700134F6E73000012100F04EFBFFF78CFFF8BDC046201F0020F81E00206E
:40348000F7B507000C0001920BF04AFD114E0021300000F03BFB104D0D21280000F004FC390A280000F000FCF9B2280000F0FCFB019BE718BC4205D02178280000F0F4FBE0
:4034C0000134F7E73000012100F020FBFFF75EFFF7BDC046201F0020F81E002007B56B46D971073301221900FFF7CAFF07BD0000F7B507000C0001920BF012FD134E00212C
:40350000300000F003FB124D1D21280000F0CCFB390A280000F0C8FBF9B2280000F0C4FB0021280000F0C0FB019BE718BC4206D00021280000F0B8FB20700134F6E7300030
:40354000012100F0E3FAFFF721FFF7BD201F0020F81E002013B56B46DC1D01222100FFF7C7FF207816BD0000F7B507000C0001920BF0D6FC0F4E0021300000F0C7FA0E4D47
:403580000E21280000F090FBB9B2280000F08CFB019BE718BC4205D02178280000F084FB0134F7E73000012100F0B0FAFFF7EEFEF7BDC046201F0020F81E0020F7B50700AE
:4035C0000C0001920BF0ACFC114E0021300000F09DFA104D1E21280000F066FBB9B2280000F062FB0021280000F05EFB019BE718BC4206D00021280000F056FB207001340D
:40360000F6E73000012100F081FAFFF7BFFEF7BD201F0020F81E002010B504210BF070FE10BD022070470000032801D8014B18707047C046C004002007B5012204480192C4
:40364000009200233B21043000F053FA07BDC046C0040020002307B504480193009303223B21043000F045FA07BDC046C004002072B6704762B6704770B504000E000F4DF5
:40368000002800D12C692000310014F0DFFA24182078002801D12C610FE03100200014F0BCFA011E04D1200014F07AFA286103E00023013103702961200070BDC00400207E
:4036C000F0B585B002900391039C394A63005B0D9E18029D132E30DC002E13DA354A364B12F036F80022002311F0E0FA002859D0002C55DA63005B082B430025AB4251D0BD
:403700002E4C4FE02E4F37413B0023402B434BD002980399274A284B12F01AF80022002311F0C4FA00283DD0002C03DA80235B033341E418BC43002534E0332E0ADD8023C0
:40374000DB009E4230D1029A039B1000190011F0FFFF2BE001271B4A7F429B18DF4001953D4221D002980399124A134B11F0F0FF0022002311F09AFA002813D0002C0DDA22
:40378000142E01D1013409E034239E1B333BB340ED18019B9D429B415B42E418BD4301E000252C00039402950298039905B0F0BD01FCFFFF9C7500883CE4377E0000F0BF61
:4037C000FFFF0F00EDFBFFFFF0B585B002900391039D394A6B005B0D9E18029C132E2EDC002E11DA354A364B11F0B2FF0022002311F05CFA002858D0002D53DB2C43251E7D
:4038000053D000242F4D50E02F4F37413B002B4023434CD002980399284A294B11F098FF0022002311F042FA00283ED0002D03DD80235B033341ED18BD43002435E0332EEA
:403840000ADD8023DB009E4231D1029A039B1000190011F07DFF2CE001271C4A7F429B18DF4001943C4222D002980399134A144B11F06EFF0022002311F018FA002814D02B
:40388000002D0DDD142E01D1013509E034239E1B333BB340E418019B9C429B415B42ED18BC4302E0802500242D06039502940298039905B0F0BDC04601FCFFFF9C7500881C
:4038C0003CE4377E0000F03FFFFF0F00EDFBFFFFF0B585B000900191019B3F485900490D0818DC0F009A132842DC00282DDA59004908114302D1009801996BE01903090B58
:403900000A4351420A438021120B09035B0C0A405B041A430192314AE300D3181E685F68009A019B3000390011F012FF3B00320013F0D8F802900391039BE4075B005B089C
:40394000234303930298039944E0254901410D001D401543CFD049080D001D40154324D0132824D08B438021890201410B4320E033280ADD8023DB009842BCD1009A019BC3
:403980001000190011F0E4FE24E01648091801204042C8401042AED04008104209D082438020C0050841024303E02A0001E08022D2050193094BE40000921C19656824687F
:4039C000009A019B2000290011F0C2FE22002B0013F088F805B0F0BD01FCFFFFC08C0100FFFF0F00EDFBFFFF084B10B51B78022B09D910F0DDFE02000B0005480EF076F8BF
:403A000004480EF073F8FFF76DFC10BDF0000020D08C0100D78C0100014B18707047C046F0000020014B18787047C046F000002000487047078D0100004870470B8D01005E
:403A400000487047108D010013B568460DF0ACF9044C019B1434009A034920000EF053F8200016BDC0040020158D010010B5040011F030FE011C0E4811F056FA0D4911F081
:403A800053FA13F033FC00220B4B11F061FE00220A4B13F027F811F069F9094B00021860084A094B01201A60084B5C6010BDC046001BB74B000050410000E03F0000F03FC6
:403AC0000803014041FF008000000140F0000020014B58687047C046F000002010B5002802D10CF0F3FF03E0012801D10CF0E8FA10BD37B506AC2478079D0094019500F061
:403B0000A7F837BD10B500F073F810BD10B500F07DF810BD10B500F0A3F810BD10B50400323809281AD810F00DFF0515091919191919110DC8B20CF08FFA1EE0C8B20CF05E
:403B40002DFA1AE0C8B20CF0A7FA16E0C8B20CF043FA12E0C8B20CF05FFA0EE0074B1B78022B0AD910F024FE02000B0004480DF0BDFF210003480DF0B9FF10BDF00000208E
:403B8000D08C01001E8D010070B505003238092816D810F0D7FE05120815151515150F0C0CF066FA01E00CF005FA040018E00CF07FFAFAE70CF01CFAF7E70CF039FAF4E74D
:403BC000084B00241B78022B0AD910F0F1FD02000B0005480DF08AFF290004480DF086FF200070BDF0000020D08C01001E8D0100190010B500F086F8034B1A78002A01D158
:403C000001321A7010BDC046F404002070B504000D0000280DD10B4B1B78022B09D910F0C7FD02000B0008480DF060FF07480DF05DFF00202056431C02D02900FFF76EFF30
:403C400070BDC046F0000020D08C0100318D010010B501704B1C02D00399FFF7D7FF10BD10B5041E0DD10B4B1B78022B09D910F09FFD02000B0008480DF038FF07480DF00B
:403C800035FF0023E35600205A1C02D01800FFF77BFF10BDF0000020D08C01005A8D010010B50CF093F810BD10B50C000CF0C8F80028FBD12000F6240CF0B4F8FF340CF0B7
:403CC000A9F8002812D1013C002CF8D1094B1B78022B09D910F06CFD02000B0006480DF005FF06480DF002FF054802E00CF08CF880B210BDF0000020D08C01006D8D0100C9
:403D0000FFFF0000002906D00023C356342B02D1014BD03319607047F804002008220D4B10B51968114203D001200B4908700FE040220A4B1968114205D01A60084BD03383
:403D40001B68984705E00122064B1968114200D01A6010BD10000440F805002010040440F804002010030440F7B5089F050001910620002D3AD0002938D0002A36D0580061
:403D8000B84231D81E0003241643072026422DD13C402BD11600D719D018B446F618B84204D2614601340860C018F6E7C01B61464642704100260E60019924182960AA60E6
:403DC0006C612C61EB60AA616F600BF091FE2A00074B084C5969203269622C620A605A610BF08AFE300001E09620FF30FEBDC046680C0020780C002070B504000D0006208A
:403E0000002C14D0002912D00BF072FE2369E061002B07D0A269013B2A6012682361A261002401E069242B600BF066FE200070BD70B504000D000620002C0DD000290BD029
:403E40000BF056FEA369E0612B602369A561013323610BF051FE002070BD000070B504000620002C1AD0002918D00025631DA16024606460257325616561DA770BF038FE70
:403E80002200074B074ED9681C322162E6610A60DA600BF031FE02232800637370BDC046680C0020700C002010B50122FFF7D6FF10BD020010B574320300107824330400B9
:403EC0001A68002A11D08A4202D14A691A60F7E713689A4201D05B331C78031CA04200D9231CD8B213001433EAE710BD10B50400FFF7DFFF230073331B780100834202D015
:403F0000200000F0E1FF10BD10B5836D5A7B022A0CD11A69030011007333733109781B78994203D100211000FFF7E0FF10BD0000F7B50500009201930624002869D0364BD7
:403F400000241B88042B64D00BF0D2FD334B06001B78A34204D0FA240BF0CEFDA40058E06B7B022B03D00BF0C7FD082451E02C4F28693B68834211D1AB695A1C07D1294892
:403F800001F004FD30000BF0B7FD264C41E00133AB6130000BF0B0FD234C3AE0002807D15A6A2B616A615D6201233000AB612EE0009A01990A4305D1C82430000BF09CFDAD
:403FC000640026E0194A1278002A04D030000BF093FDC8241DE073331978030073331B788B4201D900F070FF009A019B3968280000F0B8F830000BF07FFD00F0F3FA0BF031
:4040000077FD0500386800F0E1F8040028000BF073FD2000FEBDC046EA0E0020D80D0020D00D00208603000085030000D90D0020F8B504000625002845D0244B00251B88A5
:40404000042B40D00BF054FD214B07001B78AB4203D00BF051FDFA250FE0637B022B03D00BF04AFD08252EE01A4B18682369984205D038000BF040FDE125AD0023E0A369EB
:40408000013BA361002B04D038000BF035FD124D19E02100FFF72AFF2668B44204D1256138000BF029FD0EE0183E300000F034F8736A26616361012374623800A3610BF0A3
:4040C0001BFD00F08FFA2800F8BDC046EA0E0020D80D0020D00D002085030000026843681A600268536070470A0030B503687332834206D01C005B3425781478A54209D910
:4041000018000B0042681833CA61426888611360436030BD1B68EBE770B5050054352B780400022B06D0042B0ED11830FFF7D6FF032307E01830FFF7D1FF2100084800F057
:40414000B7FA01232B7002E0012001F01FFC200001F066F82200002355321370A36570BDDC0D002070B50C000500A065511C01D1591C02D0200001F025F823000222543307
:404180001A702100094800F0A5FA2B7B012B08D123006A681833E2616A68A56113606B6003E021002800FFF79FFF70BDDC0D002010B5836D04001B7B002B06D11830FFF7AB
:4041C0008DFF2100A06DFFF78FFF10BD10B55530007803280AD810F0B5FB10020406922002E0C92007E09420FF3007E0CA20400001F0CCFBCA20400000E0002010BD436966
:404200000200012B05D10269002093424041C0B207E00020834204D1136990698342804140427047F0B5040085B0019115000021032202A813F0D8F92000FFF7E0FF0028EC
:4042400001D06A2095E06369002B12D1E3686268934201D12368E360A2690199E06813F0BAF9A369E268D218E2602269D31A23616AE02BBA03937F2D68D93F4B9D426DD988
:404280003E4B05209D4274D84021032603AB5A7849420A4302A90A709A78DB784A708B702269AB199A42CCD36168E3688B4201D12368E360E068A368984211D30F1AB74286
:4042C0000ED2002F0DD03A0002A913F084F92368F61BE3602369DB1B2361002E0DD000E0002702ABF9183200E06813F074F923699B1B2361E3689E19E6606668E368B342B2
:4043000001D12368E360E068A368984211D3361AB5420ED9002E0CD03200019913F05BF9019BAD1B9B1901932368E36023699E1B26612A000199E06813F04DF9E3685B1917
:40434000E36023695D1B2561002012E003ABDA787F23134002AA13700126A1E7802103AA937849420B4302A90B70D37802264B7096E705B0F0BDC046FF3F0000FFFF3F00A5
:404380000268436800699B1A181A42424241D0B27047F0B5040087B0009117000021032204A813F021F92000FFF7EAFF6B23002800D08EE06268A36801926269002A14D18C
:4043C000019A934201D12368A360A269A168009813F001F9A269A3689B18A36023699B1823613B1E75D03A6072E0019A934201D12368A360A16801260A7853B2002B09DA96
:404400003F239A43802A04D03A3B0236C02A60D100E00226019B5D1AAE420BD9002D0AD02A0004A813F0D7F82368A36023695B19236100E00025A3680393731B029304ABCF
:40444000E818029A039913F0C6F8029A039B944663440393A3601300226904A99446634423610023059306AB9D1B3200280013F0B2F8012E03D03F232A7813402B70059BE0
:40448000039A1DBA019B3D60934201D12368A360A168E368994210D9019B5E1AAE420CD23200009813F097F8009BAD1B9B1900932368A36023699E1926612A00A1680098F7
:4044C00013F089F8A3685B19A36023695D1925610023180007B0F0BD036842688360C360D31A03610020704710B54361029B8A18016042608361FFF7EFFF002010BD10B527
:404500000C007334237818319B0019502378411C9B001B58FF311B605B602278FF3053119B00CB181F21914301228A4019680A431A602378427A9A4200D9437210BD0000F2
:4045400070B50C00733423780A4A9B009A58002A02D1FFF7D4FF0BE00A001B5818325D688B61CD6159680A605A6023789B001A5070BDC046DC0D00200B0010B573331B78C6
:40458000084A9B009A58002A02D1FFF7B8FF08E00A001B58183258688B61C86159680A605A6010BDDC0D002010B50BF0A1FA0B4B1C78002C04D00BF09FFAFA2080000CE0D4
:4045C000074A1378C72B03D90BF096FACA2004E0013313700BF090FA200010BDD80D0020D90D002010B50BF083FA0E4B04001B78002B12D10C4B1B78002B0ED10B4A1300ED
:40460000FF335B7A9B009B58094A183B1360094A12689A4201D00BF072FA20000BF06CFA10BDC046D80D0020D90D0020DC0D0020D40D0020D00D002010B50BF059FA104B17
:404640001B78002B04D00BF057FAFA20800015E00C4B1C78002C03D10BF04EFAC9200DE0013CE4B21C70002C03D00BF045FAC82004E00BF041FAFFF7B5FF200010BDC04692
:40468000D80D0020D90D002003004022FF335A720022431CFF3304C09842FCD1704710B5FFF74EFF10BD10B5FFF766FF10BD00000A0010B5064B73321B68127873331B78EA
:4046C0009A4202D1FFF758FF01E0FFF739FF10BDD00D00200B0070B573331A789300C3181C682568AC420AD00A001832944200D11D608A69CB691A608A69536033E01F2520
:40470000012400219543AC401960411C5311FF319B00CB181D68FF30A5431D60437A934221D14C07641A0B680A19D200002B01D10431F8E7190C01D11B041032190E01D14F
:404740001B020832190F01D11B010432990F01D19B000232DB43DB0FD21801D4427202E0012001F013F970BD0300FF335B7A034A9B001B588900183B8B507047D40D0020D1
:4047800010B50BF0B5F9134B13491B6873331B789B005B58002B19D01C001A0059342478183A002C12D01C68A3420FD0146E002C01D0013C1466146E002C07D15B331B78CF
:4047C0009B00CC582468CC50536E13660BF094F910BDC046D00D0020DC0D002070B504000E000BF085F9637B0500012B03D00BF083F9082027E02068844212D123695A1C4C
:4048000005D128000BF078F9C82080001BE0626901332361934200D9636128000BF06CF910E0002E06D02068844206D01838FFF773FCF8E71838FFF76FFC28000BF05CF959
:40484000FFF7D0FE002070BD70B504000620002C1BD0002919D000250126631C22616261A160246064602573DE770BF041F92200064B1832D969E1610549A161D9690A60F6
:40488000DA610BF039F92800667370BD680C0020800C002010B50623002803D00021FFF79DFF0300180010BD10B50623002803D00121FFF793FF0300180010BDF7B5060071
:4048C000170001930620002E3FD00BF011F91F4B05001C78002C04D00BF00EF9FA20800033E0737B012B03D00BF006F908202CE03369002B02D0013B336122E0019B3B4353
:4049000004D10BF0F9F8C82040001EE0104B1B78002B03D00BF0F0F8C82016E00D4C3A002168019B3000FFF71DFC28000BF0E4F8FFF758FE0BF0DCF805002068FFF746FC0D
:40494000040028000BF0D8F82000FEBDD80D0020D90D0020D00D00200A4B0B4A1B609A60DA600A4A5B601A615A61094A9A61DA61084A1A625A62084A1A635A63074A9A62D3
:40498000DA627047680C0020700C0020780C0020800C0020880C0020980C0020900C00200A4B70B51A681C001569094A2B68934203D09620C00000F0E9FF23681B689D42F1
:4049C00003D99620C00000F0E1FF70BDD00D0020AFBEADDE7FB50422154B16481A80FFF753FE00F0E9FBFFF7B7FF01F0E1F9124B0022124912481B605B60FFF725FF00F0BB
:404A0000A9FF012305930F4B00220493282303930D4B0E49029300230D48009201933F2300F01CF900F002FE002007B000BDC046EA0E0020DC0D002080070020868D01006F
:404A400088070020A1590000B00C00208E8D0100580D002070B5094D03242B88042B0BD100210748FFF780FE064B2C801A68064B023C1A600BF04BF8200070BDEA0E0020A1
:404A8000DC0D0020D40D0020D00D002010B50BF02FF8044A1378013313700BF02DF8002010BDC046D80D002010B50BF021F80D4A04001378013BDBB21370002B0ED10A4BF6
:404AC000197800290AD10948FFF74EFE084B1A68084B1B689A4201D00BF015F820000BF00BF810BDD80D0020D90D0020DC0D0020D40D0020D00D0020026843681A60026838
:404B00005360704770B50400002C10D025686669AC4208D0183D2800FFF7FEFA6B6A256163616C6201E0002323613400ECE770BDF0B587B01E000D9B0400059311AB1B7813
:404B40000291019312AB1B780392049313AB1D780C9F0AF0CDFF3B4B1B78002B04D00AF0CBFFFA2080006BE03F2E0AD1364B5A5D002A04D00AF0C0FF9A20400060E0012279
:404B80005A550AF0B9FF78220021200012F02CFD059B3B4301D0676601E00A236366636E2200236601230199713213701D3A002901D0137003E003211170621CD3770E9BCE
:404BC000002123610F9B0E989A0012F00DFD029B6A466360230073331E705E700F9B127C6361230075331A70033B1D702369174A0F991A600E98109B039AFCF721FE20603A
:404C00000AF076FF2300124A28335168A262E1620B605360019B0500002B0DD021000D48FFF741FD0C4B1B88032B05D128000AF063FFFFF7D7FC02E028000AF05DFF0020EF
:404C400007B0F0BDD80D0020E80E0020AFBEADDE680C0020DC0D0020EA0E0020F0B589B0040013A805789446119E129F0620002C20D000291ED0002F1CD0109A002A19D083
:404C8000002E12D03F2B13D800200790013006900595039602920E9D0F9E04970095019662462000FFF744FF04E09620400001E03220FF3009B0F0BDF0B58FB00A9318AB44
:404CC0001B7806000C931AAB1B7809910B920D930624002842D0169B013C002B3ED0980001F084F86434071E38D0782001F07EF8051E03D1380001F08BF82FE0099B306013
:404D0000002B26D0179B002B23D00A9B3F2B22D80C9B02970793022306930D9B0B9A0593179B09990493169B0393149B159C009301940A9BFFF7FCFE041E0FD004280DD0A3
:404D4000380001F065F8280001F062F80023336004E00624F4E73224FF34F1E720000FB0F0BD30B589B010AC247806940024059404940F9C03940E9C02940C9C0D9D0094E1
:404D80000195FFF799FF09B030BD00000B00F7B50343070001910524002B2FD00AF0A8FE174B06001B78002B04D0FA240AF0A4FEA40023E0134B1B78002B03D00AF09CFEC2
:404DC000C8241BE0104D3A002B68286854331C70019B00F0F7F929680C48FFF77BFC30000AF08AFEFFF7FEFB0AF082FE06002868FFF7ECF9040030000AF07EFE2000FEBD20
:404E0000D80D0020D90D0020D00D0020DC0D002010B50AF06DFE034B1C680AF06DFE200010BDC046D00D00200623002814D0002912D0030054331B78072B0BD0002300691A
:404E40009A0082185268002A01D10133F8E70B60002301E03423FF331800704770B506000D000AF045FE174B0400002E02D01A68964203D11E68FCF763FD00E030680028EC
:404E800007D120000AF038FE022000F07FFD022016E073699A0033699B18984209D920000AF02AFE9620C00000F070FD9620C00006E01B1A9B0820002B600AF01DFE00207A
:404EC00070BDC046D00D0020F7B504000D00260073363778BD4246D0230054331B78062B3AD801229A4013001422134218D15432134213D19B072FD51C4F21003800FFF70F
:404F0000E9FB1B4B35701B68210038009C4202D1FFF7C5FB27E0FFF7C6FB24E0357022E035702000FFF744F9A36D5A7B022A1AD11C692300733301931B7832789A42C6D34E
:404F40009F4210D100212000FEF7B3FF019B05001B788342BBD106E03420FF3000F016FD3420FF3000E00020FEBDC046DC0D0020D00D0020F8B504000AF0BAFD324B050068
:404F80001B78002B04D00AF0B7FDFA2080005AE0002C01D12D4B1C68230073331B783F2B4FD0230075331B78012B04D028000AF0A3FD092047E0254B1B689C4208D1244B75
:404FC0001B78002B04D028000AF096FDC8203AE02600606A5436FFF795FD3078013805281ED807270FF0AEFC030F0D0F0A0A21001848FFF76FFB0723337017E0200000F094
:405000000FF9377012E0200000F00AF920001830FFF772FD072320003370FEF775FF05E028000AF069FD3420FF300CE020002830FFF762FD28000AF05FFDFFF7D3FA00208F
:4050400001E097204000F8BDD80D0020D00D0020D90D0020DC0D0020F7B504000AF048FD484B05001B78002B04D00AF045FDFA20800085E0002C01D1434B1C682300733365
:405080001B783F2B05D128000AF036FD9720400076E0230075331B78022B04D028000AF02BFD09206CE0384B1B689C4208D1374B1B78002B04D028000AF01EFDC8205FE028
:4050C000260054363378072B05D128000AF014FD3420FF3054E0002223692C4F19001A713A78183101323A70294A50689A61D86101605160226927489A601A79DC60023256
:405100001A71FFF7C7FB3B780190013B3B70002807D028000AF0F0FC022000F037FC01982EE0606AFFF7EEFC3078013805281DD807270FF007FC030F0D0F0A0A210016486A
:40514000FFF7C8FA0723337010E0200000F068F837700BE0200000F063F820001830FFF7CBFC072320003370FEF7CEFE20002830FFF7C2FC28000AF0BFFCFFF733FA00202E
:40518000FEBDC046D80D0020D00D0020D90D00208007002088070020DC0D002010B5FFF737FE753003780020022B02D1FFF754FF01E0FFF7DFFE10BD014B1B605B60704794
:4051C000A00C00201100F0B5194324D014001D001149026443640E684F68A4197D418463C5630E4CA446216861450AD08C68CD68A41BBD419D4204D801D1944201D80968AE
:40520000F2E703004A68303342634A68016313604B6063468364F0BDA80C0020A00C0020836C002B06D0436B026B1A60026B53600023836470470000F7B504000D000AF0AA
:4052400057FC394E032732687368A4185D41374B346075601C680090344B9C425FD03068716825002368303D0193AA6BEB6B121A8B41002B53DC01D1002A50D1230024335A
:4052800018780238042846D80FF05CFB114527033D00002225342270013228001A70FFF7BFFF29002248FFF703FA019CD4E72800FFF7B6FF2300183B5A6819681C481160E2
:4052C0001B6829005A60FFF7F3F92300022225331A700123243423700FE02800FFF7A0FF2300183B5A68196811601B685A6023000222253324341A7027702800FEF704FEE4
:405300000023AB65D1E71F700023253423702800FFF786FFC9E7012000F038FBC5E700980AF0EAFBF7BDC046A80C0020A00C0020DC0D002010B501200021FFF77DFFFFF758
:405340001FFA10BD70B50AF0D3FB044B1C685D680AF0D2FB2900200070BDC046A80C0020FA22F8B5920000230D0004000FF0B2FCFA22002392000FF0CDFCFA2206000F00A5
:4053800020002900920000230FF0A4FC92197B4110001900F8BD0000036A0E4AF0B59C460D4C416A13682668676893420AD09C69DD69A41BBD418D4204D801D1644501D82D
:4053C0001B68F2E75A6842605A68036010605860F0BDC046600C0020580C002002000368481ED0B5062800D980E00FF0ABFA0421384E7F5B6B001A003C321278052A78D100
:405400001C003D342278012A73D09E6ADF6A394A1E625F621068516880197941364A9861D9619A601800FFF7B7FF0123237060E01A003C321278052A5BD11A003D32117857
:40544000002956D09968002906D059681868086018684160002199600023137049E09068D16804000C4344D01C003C342478052C3FD11C003D342478002C3AD19862D96294
:405480001169526919635A6333E019003C31097805292ED119003D310978002929D112695A6126E01A003C321178052921D119003D31097800291CD13E331B78012B18D168
:4054C000117016E01A003C321178052911D119003D31097800290CD118003E300078022807D11170180000F093FC02E0012000F04DFAD0BD580C0020600C002010B50179D8
:405500000400052907D10339FFF768FF04212000FFF764FF01212000FFF760FF10BD0000F0B58DB03E4D05AB06AE0193009601225242D317280000F061F90400FFF702FFBD
:405540000395002C03D1374B1860596002E0012000F01CFA3000FFF7D1FF334C25682700A542DFD0FFF7EEFEAA69EB69121A8B41002B02DC1BD1002A19D005A901910096F9
:40558000039800F03BF90500FFF7DCFEC9235B009D420CD0002D06D1224B186059603000FFF7ACFF30E0012000F0F0F92CE01D4B1860596028E01B4DA269E369286869680B
:4055C000121A8B41002BC8DC22D02369616920009847A368002B06D0636822681A60226853600023A360226B636B1100194312D0286869682262636212184B41A760A2614B
:40560000E3612000FFF7C8FE2468BC42D3D1A4E7002ADAD0A1E723003D331970F4E7C04690090020580C0020600C00207FB50F4B0F4A1B605B6014230E4900930E480433A4
:4056400000F074F8012305930C4B00220493802303930B4B0B49029300230B48009201930523FFF7FBFA07B000BDC046600C0020B0070020988D01009009002021550000A9
:40568000DC090020A48D0100E00B0020F0B585B003930AAB80CB0400160006201A78002C32D0002E30D000292ED00138002F2BD0039B002B27D0230000254833A160246078
:4056C000646026616563A563276325731A700AF00FFA22000D4B4032596B0D4B616423640A4B0A605A630AF007FA04232000637314300C9B0097039A3100FEF7F5FE636AF3
:405700002800E36300E0034805B0F0BD680C0020980C0020BD0200001FB5012402940194069C0094FFF7B2FF04B010BD30B500251C0085B0089B029501356343019500943A
:40574000FFF7A4FF05B030BDF8B504000E0015000620002C4CD000294AD00AF0C9F9637B0700042B03D00AF0C7F9082040E0236B9D4203D90AF0C0F91E4839E0002D03D148
:405780000AF0BAF9052033E023689C421FD120002A0031001430FEF745FD051E07D038000AF0AAF928006A2D22D1134820E0636BA26B01336363934200D9A363636AE26B36
:4057C0009A4200D9E36338000AF096F90FE0183B1C002A003100D86C11F0FDFE20002565FEF79AFC38000AF087F9FEF7FBFE0020F8BDC046BF020000BE020000F0B585B0E9
:405800000500019202930B9F0620002D66D00A9B002B63D0002F61D00AF06AF9304B04001B78002B08D0019B029A134304D00AF063F9FA20800051E06B7B042B04D02000A7
:405840000AF05AF9082049E02E0014363000FEF797FD039000280CD13A000A993000FEF798FD6B6B2000013B6B630AF045F9039834E0019B029A134306D120003B600AF029
:405880003BF9C820400029E0164B1B780393002B06D0002320003B600AF02EF9C8201DE0114E0A9B3168019ACB642800029BFEF759FC20000AF020F9FEF794FE0AF018F9D9
:4058C00005003068FEF782FC039B041E01D133681B6D28003B600AF00FF9200005B0F0BDD80D0020D90D0020D00D002030B589B001225242D3171548FEF7E0FF002802D0AA
:40590000682000F043F80AF0F3F8114B1C689C4219D06368226801AD1A60226853600AF0EBF821001C221439280011F054FE00242B78A342E7D9A300EB185868013400F073
:4059400067FAE4B2F4E70AF0D7F8D1E788070020800700207FB501230593084B0022049340230393064B0749029300230648009201930523FFF772F907B000BDED5800007A
:4059800004060020AF8D010008070020034B10B51B68002B00D0984710BDC046C800002070B5012400250AF0A3F805490A684B6812196B410A604B600AF09EF8F3E7C04653
:4059C000500D00202021002819D00023020C9A4201D100041033020E02D108330002DBB2020F02D104330001DBB2820F02D102338000DBB21900002801DB0133D9B2202298
:405A00000020531A052B04DD981F142B01DD012040427047072370B5040048680D009843FFF7D0FF0F280FD80023AB608300E3181A69EA601A69002A00D095601D6101233F
:405A40008340E2681343E36070BD072370B5050048680C009843FFF7B5FF0F2819D8E368002B01D0A2689A60A268002A00D0D3608300EB181A69944208D1E2681A61002A6D
:405A800004D101238340EA689A43EA600023A360E36070BD10B5002809D0002907D08068FEF7C6F9002802D00120FFF76FFF10BDF7B507000D00061E00D186E00E1E00D155
:405AC00083E00AF015F83860B86800280CD0202D0AD80369002B07D001A9FEF78DF9002802D1019E002E6DD1072307359D43202D00D220252800FFF765FF0026431C61D0D6
:405B00000122431C52429A40FB681A40B24220D091B23300B14201D1120C1033D1B2002902D10833120ADBB2110702D104331209DBB2910702D102339208DBB2D20701D496
:405B40000133DBB20F2B04D804339B00DC59002C0DD1072204308000C459002C05D0636893439D4203D9E468F7E726002AE021003800FFF76AFF07239C4661686246260031
:405B80000B002800083693432830F218834211D30220083B0140604629435D1B01236160814371181D430C604D6038001160FFF731FF03E0022153688B43536001236268B9
:405BC0009A436260386809F097FF3000FEBDF8B504000D1E4BD0002849D009F089FFA3682060002B0AD09A68954207D35B689D4204D229002000FFF74DFF35E001222E0087
:405C000011000727083E73681943BB437160ED186B68134209D029002000FFF716FF6B687268BB4308329B187360736835009B070BD5356820002900FFF707FF072273689C
:405C400093436A6808329B186B6029002000FFF7E1FE07232A006968083299435318022259681D600A435A60206809F045FFF8BDF0B5070085B00620002F57D0002955D072
:405C80000726CC1DB44351180A1BB24313000392274A5E309A18274B9A4247D850220021200011F0A1FC09F023FF08232200210000256365039B5032503BB343083BD318F8
:405CC0006831591A20602565516121006031D56195611960022159609360230051685833B1435918D5600831636020003C60FFF76EFF8521A560C9002000FFF7D9FE051E16
:405D000010D080230200DB000093283220230A49FEF72AF8002801D1A56003E029002000FFF755FF206809F0E7FE002005B0F0BD00F8FFFF00F80F00C18D0100F8B507000C
:405D40000620002F33D0002931D00723CD1D9D4351184C1B9C435E303F2C28D922000021280011F041FC09F0C3FE08232A000026083C386010326B602B19183CEE61AE6147
:405D80002E606C611A6002225A60AB602B0069680532083391437A685918EA6008317B603800FFF714FF386809F0A6FE3000F8BD70B50126094B0A4D06CB2800FFF758FF92
:405DC000084C094B1B689E4207D2626821682868FFF7B4FF01360834F3E770BDC000002000060020C8000020BC00002010B5041E04D105480BF07AFE200004E0034B010020
:405E00001868FFF755FE10BDCE8D01000006002010B5034B01001868FFF7D9FE10BDC04600060020642070477047002070470000002273B5016803793C4DCA542B780400AA
:405E4000022B04D90279417939480BF04FFE002623799E4209DA2B78022B04D923683548995D0BF043FE0136F2E72B78022B02D931480BF03BFE23681A78022A3BD0042AC4
:405E800044D0012A51D12279032A4ED15A789B78002A0DD1002B0BD12B78022B45D90EF087FC02000B0025480BF020FE244815E01202694613436A4601200531941D0870FA
:405EC0002380042B0DD82B78022B2ED90EF070FC02000B0019480BF009FE1A480BF006FE23E005200DF03AFA210006200DF036FA00F096FD19E02279022A16D158780128E9
:405F000001D0002811D10AF0E5F80EE02279022A0BD15B78FF2B08D1BFF34F8F0A4A0B4BDA60BFF34F8FC046FDE773BDF0000020E98D0100038E0100C28A0100D08C010067
:405F4000098E01001D8E01000400FA0500ED00E0F0B587B06B460400DE1C01AD310001200DF090F9280009F083FB2B8822681B0A13702B8822682349537068680FF0EEF857
:405F80000FF086FB27680012B87068681D490FF0E5F80FF07DFB27681A49F870A8680FF0DDF80FF075FB276800123871A86815490FF0D4F80FF06CFB276813497871E86855
:405FC0000FF0CCF80FF064FB27680012B8710E49E8680FF0C3F80FF05BFB0C4927680A78F8712B7C012A04D100205B000870134300E05B00226813723378637109232371B8
:4060000007B0F0BD0000C84200002041F805002010B5FDF7E9FC09F05DFB034800F074FA00F0E4FF002010BDFC00002010B5437841790548002B00D004480BF057FD0122C0
:40604000034B1A7010BDC046868E0100978E0100100100207FB501250A4C01AE20000EF065FB3000357007F001FB002808D13379002B02D00323237502E0034B5D70257565
:406080007FBDC046EC0E00201001002070B5FA250024AD00074B9B695B7B6B439C4206D208F0E4F8FA210EF0D1FD6418F2E7200070BDC046EC0E0020F0B50400007887B0D9
:4060C000082800D9B6E00EF03DFC056AB5B5B57DB58B9B0063785A4C002B08D10233237558490233584823770BF000FDA2E005230125A66923772575F07B022820D0401999
:4061000003210EF0A3FDF173FFF7C0FFA369DA7B022A17D19A7CD97C0023090211431A000E001E415F1C2E4205D0012B01D13B00F6E70132D2B23B00102FF1D1627701E018
:40614000FA204001A269D37B022B1DD1637F002B14D10133D3733B493C480BF0C7FC3C4B1B78022B0FD90EF023FB02000B0039480BF0BCFC38480BF0B9FC04E0013B637768
:40618000FFF784FF00E03548010020000EF002FB20000EF04FFA0022314B5A704AE004202056637C227C617801900225605F00902C480BF09BFC6378002B3BD00622204B53
:4061C0001A7737E062781E4B002A07D108321A75234B073A1A702DE000229A7706220DE06278174B002A03D109219A77197521E09A7F012AF0D801329A7707221A7519E056
:4062000063780F4D002B13D1012603AC20002370267107F01FFB2C232370AB692000DB78237107F017FB03232B750D4B1E7001E009232B7501220A4B1A7007B0F0BDC0461C
:40624000EC0E0020A98E0100B08E0100B88E0100F0000020D08C0100C28E010080EE360010010020E68E010010B5054B1A6A1278920704D55B6A0348DB680430984710BD76
:40628000EC0E00201001002030B5037885B0062B10D00A2B04D0042B36D11C4A137533E0002301A80370037107F0D4FA0722174B1A7529E043780E2B26D1427C032A23D148
:4062C000124C1530210028310D784B782B438D782B430500002B11D011F06EF900280DD020000EF023FA0A49002007F0DBFF010020000EF04FFA20000EF09CF920000322FB
:406300002830290011F067F905B030BDEC0E0020C0D4010070B52F4E8AB0307A01A907F02FF903000120002B51D12B4D05AC2B6A1A780C231340082B03D12070200007F0EA
:4063400055FC0C22B256D3B2002A04DA2B6A1B78DB07DB0FDBB2002B19D10E3302A803702B002B331B78002B03D12B6A5B781B090133037107F06EFA002323702B6A9A780A
:4063800022717268A260327AA281DB7813E001232A6A2370937823717368A360337AA3812B002B331B78002B03D153781B071B0F0133E373D378A37300232B352B70200065
:4063C000FF33337307F056FD431E9841C0B20AB070BDC04610010020EC0E0020F8B543780400002B6DD1374B1A781E00022A0ED90EF0DEF902000B0033480BF077FB102281
:406400000E20215E2379A25630480BF06FFB08232F4D2B77637B002B11D0E378E02B21D02C4EA1687375227B3069327592B207F044FF30006B6A10301B69984712E0A37C35
:40644000002B0FD03378022B0CD90EF0B1F90B0002001D480BF04AFBE96A1F484B1CEB620BF044FBA07C237B4600607EE278810030000843217801394F424F4139000143AE
:40648000207EC000014349B214480BF02FFB237B002B08D112480BF029FBA37E002B10D004232B750DE00F480BF020FB0026237B9E42EFDAA3680C48995D0BF017FB013650
:4064C000F5E7F8BDF0000020D08C0100088F0100EC0E0020100100203B8F01004F8F0100C28A0100688F0100638F01001FB51A2301AC2000237007F0B9F80023984200D1F2
:406500006368180004B010BD0022084B10B51A755862FBF737FF002805D0054B054A0649064810F0EDFF02F0C3FF10BDEC0E00206A8F0100448E0100850200007D8F01002B
:4065400070B5054C0500237D062B02D120000EF0EDF8257570BDC046EC0E0020014B187701207047EC0E0020014B187F7047C046EC0E002010B588B0012826D0022809D06C
:40658000002802D00124644220E0012203AB1A7004001BE00C78072C02D9012464421DE00823200003AA11791370013B1840994301430B400520694613710CF00FFD6B464D
:4065C000694605201C700CF039FD002403A807F00DFB002802D10422024B1A75200008B010BDC046EC0E0020F0B50E0089B001931700731E9E4103AD0400290006200CF073
:40660000EDFCF6B2FB1F2E70F82B00D86F70019B013BFE2B02D86B461B79AB70290006200CF00CFD002C11D1204D28000EF07EF8012305A80370047107F00CF9002830D1B3
:4066400006232B751A4B20005E702CE0012C28D105AD28002C7007F009F8002821D12B79002B14D0287128002C7007F0F3F8002817D1104B1B78022B09D90EF099F80200B4
:406680000B000D480BF032FA0C480BF02FFA074C20000EF04BF80123054A00205370237501E00120404209B0F0BDC046EC0E002010010020F0000020D08C0100B48F01004D
:4066C000F0B5154D89B001902800029103921F000EF02CF8012305AE3000337006F0C6FF041E15D13379002B12D06B460B4E1B793A0003997068337310F06DFF6A462B00D9
:40670000127A2B331A70032337722B75200001E00120404209B0F0BDEC0E00201001002010B500280DD000290BD0002A09D0064B5C7D0470187D107000201A690A60187503
:4067400001E00120404210BD10010020F0B50F00194987B0060010220A3102A810F03BFF0F2E24D8154C0120A36800250193984702AB985D124B40195843124BC018E36822
:4067800001939847636B00200193984703200AF0A9F9236C0120019398476B000135F852082DE5D1E36A01939847002001E00120404207B0F0BDC046448E010084A3010084
:4067C000400D03006035081C30B5050085B03C20FCF714F9041E0CD03C22290010F0FBFE1A2301A80370446007F034F843425841C0B205B030BD1FB50400FFF777FE021EE2
:4068000015D00368A3420ED11B2201AC02902000227007F01FF80022904208D16068FCF7F3F8012203E0806B0028EAD10200100004B010BD10B5FFF759FE031E05D0002303
:40684000806B0133DBB20028FAD1180010BD000010B500280FD001280AD1084C2378002B0BD0FFF701FDFFF755FD2070002002E0072802D10638FDF731F910BD10010020A5
:40688000802230B5C7B006AD5200002102AC280010F0AAFE10220021200010F0A5FE210000200CF047FB0023E25CEA540133082BFAD1210001200CF03DFB0023E15CEA18F8
:4068C00001331172082BF9D1210002200CF032FB0023E15CEA1801331174102BF9D101A903200CF027FB1922019B6A44190ED1771A22190C6A44D1771B22190A6A44D177CC
:40690000042007AA2100D3770CF014FB00231A00E15C24320133A954102BF8D1210005200CF008FB00231A00E15C34320133A954102BF8D12900002009F0BEFF47B030BDCA
:40694000802230B5C7B006AD52000021280002AC10F04AFE10220021200010F045FE8022002352002D4959180978E95401339342F8D10023EA5CE2540133082BFAD121009F
:4069800000200CF067FA0023EA18127AE2540133082BF9D1210001200CF05CFA0023EA18127CE2540133102BF9D1210002200CF051FA19236B44D87F1A2320706B44DA7FEB
:4069C0001B2362706B44DB7F07A9A370C97F0006120402430A431B021343E170032001A901930CF037FA00231A002432AA5CE2540133102BF8D1210004200CF02BFA0023E3
:406A00001A003432AA5CE2540133102BF8D1210005200CF01FFA47B030BDC04600F4FF0F802230B5CDB00CAC00215200200010F0DBFD112323706B4600209D1C2900987072
:406A40000CF0CCFA002801D12B7863706B46DD1C290002200CF0C2FA2B7801AD29000320A3700CF0BBFA2B780420E3706B465D1D29000CF0B3FA2B7809AD29000520237184
:406A80000CF0ACFA2B78062063716B78A371AB78E3716A68EB78120213431A0E22721A0C62721A0AA272E372AB68EA791B0213431A0E05AD22731A0C627329001A0AA27392
:406AC000E3730CF08BFA2B78012023746B786374AB78A374EB78E3742B7923756B790E256D44290063750CF079FA2B8800201A0AE3756B469D1D2900A2750CF0C3FB2B78EB
:406B0000052023766B46DD1D29000CF0BBFB2B7802AD2900082063760CF0B4FB2B7809256D4429000920A3760CF0ACFB2B780A256D4429000120E3760CF0A4FB2B780B25C6
:406B40006D442900022023770CF09CFB2B7803AD2900072063770CF095FB2B7804AD29000B20A3770CF08EFB2B880A201A0AE277312207AC6A442100D3770CF083FB322354
:406B800022786B44DA77332362786B44DA7763680DAA190ED1773522190C6A44D1773622190A6A441224D17737226C446A4421000620D3770CF066FB23880D24190A0EAAA5
:406BC0006C44D177042016AA210013700CF05AFB592322786B440CA901201A7009F06CFE4DB030BD802230B5CDB00CAD52000021280010F0F9FC802300245B00634AA2187C
:406C000012782A5501349C42F8D16B46991C4CAB1C1B637800200B700CF010FA6B46D91CA37802200B700CF009FAE37801A903200B700CF003FA6B46591D237904200B7004
:406C40000CF0FCF92722637909A90B70A3796A444B70E3798B700E9B1BBA180A13705070180C1B0E9070D3702B220F9B6A441BBA180A5070180C137090701B0E0520D370EE
:406C80000CF0DCF9237C05A95A1E93410B70637C06204B70A37C8B70E37CCB70237D0B71637D4B710CF0CAF90E21E38A69445BBA01200B800CF0C2F96B46991D237E00201B
:406CC0000B700CF04BFB6B46D91D637E05200B700CF044FBA37E02A908200B700CF03EFB0921E37E694409200B700CF037FB0A21237F694401200B700CF030FB0B21637F7B
:406D0000694402200B700CF029FBA37F03A907200B700CF023FBE37F621CD27F1B0204A913430B200B800CF019FBA31CDB7F07A90B70E31CDB7F0A204B70231DDB7F1A060C
:406D4000631DDB7F1B041343E21DD27F1343A21DD27F120213434B600CF000FB2300220012210833DB7F283212781B021343694406200B800CF0F2FA0D2129342378694485
:406D800004200B700CF0EAFA4DB030BD00F5FF0FF0B5A5B00DAD5A220021280010F024FC8D4B96220D93E0230327AB75AB77EB77A93B6A756A776B44443ADA770EABDF779C
:406DC00039234B3A6B44DA773A2377326B44DA773B2366326B44DA77883A0FABDA776E2317AA13704522D821944629752977614618326A4411705E2264216A4411705F22C7
:406E0000FF20D9216A441170E8756C39FD3818AA1170A876612240206A44E87636301070622238306A441070632259386A4410705A3019AA1070652224306A4410706622E1
:406E400029386A441070672221386A441070634A5B386A631BAA10700A005E306A4410701A0006386A4410706F2236386A44107064301CAA1070712204246A44147072244B
:406E800016226C442270732472266C44267049361DAC26707524023E6C4426707624163E6C44267077240A3E6C44267059361EAC26707924143E6C4426707A246C44207087
:406EC0002724393868440470C8341FA804707D2068440170113169440B70252111336B44197020AB1F708123D0316B44197082237B396B441970832368316B441970183111
:406F000021AB19708523E5396B441970862307316B4419708723BE316B441970533922AB1970892361466B4419708A235F216B4419708B232A4C6B4447391970210007A896
:406F40001A3110F048FB21001222303102A810F042FB01246B4628001C700BF05BFF214D286307A80CF01EF8A86102A80CF078F9286268460CF02AF81B4B1D78002D24D1BA
:406F80006B466A461E199F1C9C70DC703C2393800223911D20000B8035700CF04FF8390004200CF0DBF9310028000CF0D7F96B460520D91C0CF0D2F901A906200CF0CEF9D7
:406FC000642009F08FFDFFF72BFDFFF7B9FCFFF709FE25B0F0BDC046BABAABAB7A237266448E0100EC0E002000F5FF0FF0B59FB002F044F97B4B5B6E002B00D098477A4EB7
:407000007A4C3378012B12D119AD28002B7006F02DFB00280BD12B79002B07D0636A7448DB6804309847FFF775F900E03370207DC0B2092800D992E30DF08EFC0A00640234
:40704000C2024903830391038E03F60208033403684B21006363684B2000A363674B4431E363674B08222364636A34301B6863640023A36406F0EEF8FFF78AFE236B10211A
:40708000181D0BF0BDFE002800D074E15D4D2B782F00022B09D90DF08BFB02000B005A480AF024FD59480AF021FD2B78022B02D957480AF01BFDA3691A780323134000D0C4
:4070C000B0E02B78022B09D90DF072FB02000B004D480AF00BFD4F480AF008FD2B78022B17D90DF065FB02000B0047480AF0FEFC206BC67E837D427D017D0496867E0396BA
:40710000467E0296067E0196C07D009042480AF0EDFC2B78022B1BD90DF04AFB02000B0039480AF0E3FC206B061DF67F837F427F017F0496C61CF67F0396861CF67F029692
:40714000461CF67F0196C07F009034480AF0CEFC2B78022B00D8D6E00DF02AFB02000B0029480AF0C3FC206B060033363678C31D821D411DDB7FD27FC97F0C960600323653
:4071800036780B960600313636780A96060030363678099606002F363678089606002E363678079606002D363678069606002C363678059606002B363678049606002A3627
:4071C00036780396060029363678029606002830007808360190F07F009011480AF086FC91E0C04684A30100F8050020EC0E0020100100202D600000DD630000B960000037
:4072000089620000F0000020D08C0100D18F0100E28F0100EF8F0100F68F0100219001004C900100012B6ED12B78022B09D90DF0BFFA02000B00D2480AF058FCD1480AF034
